{
  "_format": "hh-sol-artifact-1",
  "contractName": "ArtistProfile",
  "sourceName": "contracts/ArtistProfile.sol",
  "abi": [
    {
      "anonymous": false,
      "inputs": [
        {
          "indexed": true,
          "internalType": "address",
          "name": "follower",
          "type": "address"
        },
        {
          "indexed": true,
          "internalType": "address",
          "name": "followed",
          "type": "address"
        }
      ],
      "name": "Followed",
      "type": "event"
    },
    {
      "anonymous": false,
      "inputs": [
        {
          "indexed": true,
          "internalType": "address",
          "name": "previousOwner",
          "type": "address"
        },
        {
          "indexed": true,
          "internalType": "address",
          "name": "newOwner",
          "type": "address"
        }
      ],
      "name": "OwnershipTransferred",
      "type": "event"
    },
    {
      "anonymous": false,
      "inputs": [
        {
          "indexed": true,
          "internalType": "uint256",
          "name": "profileId",
          "type": "uint256"
        },
        {
          "indexed": true,
          "internalType": "address",
          "name": "artist",
          "type": "address"
        }
      ],
      "name": "ProfileCreated",
      "type": "event"
    },
    {
      "anonymous": false,
      "inputs": [
        {
          "indexed": true,
          "internalType": "uint256",
          "name": "profileId",
          "type": "uint256"
        },
        {
          "indexed": true,
          "internalType": "address",
          "name": "artist",
          "type": "address"
        }
      ],
      "name": "ProfileUpdated",
      "type": "event"
    },
    {
      "anonymous": false,
      "inputs": [
        {
          "indexed": true,
          "internalType": "uint256",
          "name": "profileId",
          "type": "uint256"
        },
        {
          "indexed": true,
          "internalType": "address",
          "name": "artist",
          "type": "address"
        }
      ],
      "name": "ProfileVerified",
      "type": "event"
    },
    {
      "anonymous": false,
      "inputs": [
        {
          "indexed": true,
          "internalType": "address",
          "name": "follower",
          "type": "address"
        },
        {
          "indexed": true,
          "internalType": "address",
          "name": "unfollowed",
          "type": "address"
        }
      ],
      "name": "Unfollowed",
      "type": "event"
    },
    {
      "inputs": [
        {
          "internalType": "address",
          "name": "",
          "type": "address"
        }
      ],
      "name": "addressToProfileId",
      "outputs": [
        {
          "internalType": "uint256",
          "name": "",
          "type": "uint256"
        }
      ],
      "stateMutability": "view",
      "type": "function"
    },
    {
      "inputs": [
        {
          "internalType": "string",
          "name": "_name",
          "type": "string"
        },
        {
          "internalType": "string",
          "name": "_bio",
          "type": "string"
        }
      ],
      "name": "createProfile",
      "outputs": [],
      "stateMutability": "nonpayable",
      "type": "function"
    },
    {
      "inputs": [
        {
          "internalType": "address",
          "name": "_artist",
          "type": "address"
        }
      ],
      "name": "followArtist",
      "outputs": [],
      "stateMutability": "nonpayable",
      "type": "function"
    },
    {
      "inputs": [
        {
          "internalType": "address",
          "name": "_artist",
          "type": "address"
        }
      ],
      "name": "getArtistProfile",
      "outputs": [
        {
          "components": [
            {
              "internalType": "string",
              "name": "name",
              "type": "string"
            },
            {
              "internalType": "string",
              "name": "bio",
              "type": "string"
            },
            {
              "internalType": "address",
              "name": "walletAddress",
              "type": "address"
            },
            {
              "internalType": "uint256",
              "name": "followerCount",
              "type": "uint256"
            },
            {
              "internalType": "uint256",
              "name": "followingCount",
              "type": "uint256"
            },
            {
              "internalType": "bool",
              "name": "isVerified",
              "type": "bool"
            }
          ],
          "internalType": "struct ArtistProfile.Profile",
          "name": "",
          "type": "tuple"
        }
      ],
      "stateMutability": "view",
      "type": "function"
    },
    {
      "inputs": [
        {
          "internalType": "address",
          "name": "",
          "type": "address"
        },
        {
          "internalType": "address",
          "name": "",
          "type": "address"
        }
      ],
      "name": "isFollowing",
      "outputs": [
        {
          "internalType": "bool",
          "name": "",
          "type": "bool"
        }
      ],
      "stateMutability": "view",
      "type": "function"
    },
    {
      "inputs": [],
      "name": "owner",
      "outputs": [
        {
          "internalType": "address",
          "name": "",
          "type": "address"
        }
      ],
      "stateMutability": "view",
      "type": "function"
    },
    {
      "inputs": [
        {
          "internalType": "uint256",
          "name": "",
          "type": "uint256"
        }
      ],
      "name": "profileIdToAddress",
      "outputs": [
        {
          "internalType": "address",
          "name": "",
          "type": "address"
        }
      ],
      "stateMutability": "view",
      "type": "function"
    },
    {
      "inputs": [
        {
          "internalType": "uint256",
          "name": "",
          "type": "uint256"
        }
      ],
      "name": "profiles",
      "outputs": [
        {
          "internalType": "string",
          "name": "name",
          "type": "string"
        },
        {
          "internalType": "string",
          "name": "bio",
          "type": "string"
        },
        {
          "internalType": "address",
          "name": "walletAddress",
          "type": "address"
        },
        {
          "internalType": "uint256",
          "name": "followerCount",
          "type": "uint256"
        },
        {
          "internalType": "uint256",
          "name": "followingCount",
          "type": "uint256"
        },
        {
          "internalType": "bool",
          "name": "isVerified",
          "type": "bool"
        }
      ],
      "stateMutability": "view",
      "type": "function"
    },
    {
      "inputs": [],
      "name": "renounceOwnership",
      "outputs": [],
      "stateMutability": "nonpayable",
      "type": "function"
    },
    {
      "inputs": [
        {
          "internalType": "address",
          "name": "newOwner",
          "type": "address"
        }
      ],
      "name": "transferOwnership",
      "outputs": [],
      "stateMutability": "nonpayable",
      "type": "function"
    },
    {
      "inputs": [
        {
          "internalType": "address",
          "name": "_artistToUnfollow",
          "type": "address"
        }
      ],
      "name": "unfollowArtist",
      "outputs": [],
      "stateMutability": "nonpayable",
      "type": "function"
    },
    {
      "inputs": [
        {
          "internalType": "address",
          "name": "_artist",
          "type": "address"
        },
        {
          "internalType": "string",
          "name": "_name",
          "type": "string"
        },
        {
          "internalType": "string",
          "name": "_bio",
          "type": "string"
        }
      ],
      "name": "updateArtistProfile",
      "outputs": [],
      "stateMutability": "nonpayable",
      "type": "function"
    },
    {
      "inputs": [
        {
          "internalType": "string",
          "name": "_name",
          "type": "string"
        },
        {
          "internalType": "string",
          "name": "_bio",
          "type": "string"
        }
      ],
      "name": "updateProfile",
      "outputs": [],
      "stateMutability": "nonpayable",
      "type": "function"
    },
    {
      "inputs": [
        {
          "internalType": "uint256",
          "name": "_profileId",
          "type": "uint256"
        }
      ],
      "name": "verifyProfile",
      "outputs": [],
      "stateMutability": "nonpayable",
      "type": "function"
    }
  ],
  "bytecode": "0x608060405234801561001057600080fd5b5061001a33610023565b60018055610073565b600080546001600160a01b038381166001600160a01b0319831681178455604051919092169283917f8be0079c531659141344cd1fd0a4f28419497f9722a3daafe3b4186f6b6457e09190a35050565b611388806100826000396000f3fe608060405234801561001057600080fd5b50600436106100f55760003560e01c80638da5cb5b11610097578063ba1feb8a11610066578063ba1feb8a14610233578063c36fe3d614610246578063c9d3cc6a1461026b578063f2fde38b1461027e57600080fd5b80638da5cb5b146101d157806399ec3a42146101e2578063a432ba2014610220578063b3b306401461016e57600080fd5b8063550c9533116100d3578063550c95331461018e578063647c9101146101a3578063715018a6146101b6578063803e0372146101be57600080fd5b806302cb7d0e146100fa578063070117c4146101405780630f53a4701461016e575b600080fd5b610123610108366004610e7a565b6003602052600090815260409020546001600160a01b031681565b6040516001600160a01b0390911681526020015b60405180910390f35b61016061014e366004610eaf565b60046020526000908152604090205481565b604051908152602001610137565b61018161017c366004610eaf565b610291565b6040516101379190610f17565b6101a161019c366004610e7a565b610491565b005b6101a16101b1366004611032565b61052b565b6101a16105f6565b6101a16101cc366004610eaf565b61060a565b6000546001600160a01b0316610123565b6102106101f03660046110a6565b600660209081526000928352604080842090915290825290205460ff1681565b6040519015158152602001610137565b6101a161022e366004610eaf565b610790565b6101a16102413660046110d9565b61096f565b610259610254366004610e7a565b610b06565b6040516101379695949392919061113d565b6101a16102793660046110d9565b610c58565b6101a161028c366004610eaf565b610cfe565b6102d56040518060c00160405280606081526020016060815260200160006001600160a01b0316815260200160008152602001600081526020016000151581525090565b6001600160a01b038216600090815260046020526040812054908190036103175760405162461bcd60e51b815260040161030e90611193565b60405180910390fd5b60008181526005602052604090819020815160c0810190925280548290829061033f906111c3565b80601f016020809104026020016040519081016040528092919081815260200182805461036b906111c3565b80156103b85780601f1061038d576101008083540402835291602001916103b8565b820191906000526020600020905b81548152906001019060200180831161039b57829003601f168201915b505050505081526020016001820180546103d1906111c3565b80601f01602080910402602001604051908101604052809291908181526020018280546103fd906111c3565b801561044a5780601f1061041f5761010080835404028352916020019161044a565b820191906000526020600020905b81548152906001019060200180831161042d57829003601f168201915b505050918352505060028201546001600160a01b03166020820152600382015460408201526004820154606082015260059091015460ff1615156080909101529392505050565b610499610d77565b6000818152600360205260409020546001600160a01b03166104cd5760405162461bcd60e51b815260040161030e90611193565b6000818152600560208181526040808420909201805460ff19166001179055600390528082205490516001600160a01b039091169183917fd5d9b40fdba5f30a91836d70520e38d012a99e01b7a86dd9fda0d18b195edbfa9190a350565b610533610d77565b6001600160a01b03831660009081526004602052604081205484910361056b5760405162461bcd60e51b815260040161030e90611193565b6001600160a01b038416600090815260046020908152604080832054808452600590925290912061059c858261124c565b5060008181526005602052604090206001016105b8848261124c565b506040516001600160a01b0386169082907f929b45f05d536b3a708a775eb2c04c88a7780b2663a22d5d5f157c2135036d4b90600090a35050505050565b6105fe610d77565b6106086000610dd1565b565b3360008181526004602052604081205490036106385760405162461bcd60e51b815260040161030e90611193565b6001600160a01b0382166000908152600460205260408120548391036106705760405162461bcd60e51b815260040161030e90611193565b3360009081526006602090815260408083206001600160a01b038716845290915290205460ff166106d35760405162461bcd60e51b815260206004820152600d60248201526c4e6f7420666f6c6c6f77696e6760981b604482015260640161030e565b336000818152600460208181526040808420546001600160a01b03891680865282862054968652600684528286209086528352818520805460ff1916905580855260059092528320909101805491939261072c83611322565b9091555050600081815260056020526040812060030180549161074e83611322565b90915550506040516001600160a01b0386169033907f25b48012798806863072289354ed0b3849b73152482d9c6694e5cbb35f38d5e390600090a35050505050565b3360008181526004602052604081205490036107be5760405162461bcd60e51b815260040161030e90611193565b6001600160a01b0382166000908152600460205260408120548391036107f65760405162461bcd60e51b815260040161030e90611193565b6001600160a01b03831633036108475760405162461bcd60e51b815260206004820152601660248201527521b0b73737ba103337b63637bb903cb7bab939b2b63360511b604482015260640161030e565b3360009081526006602090815260408083206001600160a01b038716845290915290205460ff16156108af5760405162461bcd60e51b8152602060048201526011602482015270416c726561647920666f6c6c6f77696e6760781b604482015260640161030e565b336000818152600460208181526040808420546001600160a01b03891680865282862054968652600684528286209086528352818520805460ff1916600117905580855260059092528320909101805491939261090b83611339565b9091555050600081815260056020526040812060030180549161092d83611339565b90915550506040516001600160a01b0386169033907f6178e95c138f06036cdc07a49ed6a3d23008969fa143baeceb037ebae22e8d1490600090a35050505050565b610977610e21565b33600090815260046020526040902054156109cd5760405162461bcd60e51b815260206004820152601660248201527550726f66696c6520616c72656164792065786973747360501b604482015260640161030e565b6109db600280546001019055565b60006109e660025490565b6040805160c081018252858152602080820186905233828401526000606083018190526080830181905260a08301819052848152600590915291909120815192935090918190610a36908261124c565b5060208201516001820190610a4b908261124c565b506040828101516002830180546001600160a01b03199081166001600160a01b039093169290921790556060840151600380850191909155608085015160048086019190915560a0909501516005909401805460ff191694151594909417909355600085815260209384528281208054339316831790558181529390925280832084905551909183917f9f150021d8fd04eb219a39e3019273bddf99a9a2e434dd2aa8132e32ea9244b09190a350610b0260018055565b5050565b600560205260009081526040902080548190610b21906111c3565b80601f0160208091040260200160405190810160405280929190818152602001828054610b4d906111c3565b8015610b9a5780601f10610b6f57610100808354040283529160200191610b9a565b820191906000526020600020905b815481529060010190602001808311610b7d57829003601f168201915b505050505090806001018054610baf906111c3565b80601f0160208091040260200160405190810160405280929190818152602001828054610bdb906111c3565b8015610c285780601f10610bfd57610100808354040283529160200191610c28565b820191906000526020600020905b815481529060010190602001808311610c0b57829003601f168201915b5050505060028301546003840154600485015460059095015493946001600160a01b039092169390925060ff1686565b336000818152600460205260408120549003610c865760405162461bcd60e51b815260040161030e90611193565b336000908152600460209081526040808320548084526005909252909120610cae858261124c565b506000818152600560205260409020600101610cca848261124c565b50604051339082907f929b45f05d536b3a708a775eb2c04c88a7780b2663a22d5d5f157c2135036d4b90600090a350505050565b610d06610d77565b6001600160a01b038116610d6b5760405162461bcd60e51b815260206004820152602660248201527f4f776e61626c653a206e6577206f776e657220697320746865207a65726f206160448201526564647265737360d01b606482015260840161030e565b610d7481610dd1565b50565b6000546001600160a01b031633146106085760405162461bcd60e51b815260206004820181905260248201527f4f776e61626c653a2063616c6c6572206973206e6f7420746865206f776e6572604482015260640161030e565b600080546001600160a01b038381166001600160a01b0319831681178455604051919092169283917f8be0079c531659141344cd1fd0a4f28419497f9722a3daafe3b4186f6b6457e09190a35050565b600260015403610e735760405162461bcd60e51b815260206004820152601f60248201527f5265656e7472616e637947756172643a207265656e7472616e742063616c6c00604482015260640161030e565b6002600155565b600060208284031215610e8c57600080fd5b5035919050565b80356001600160a01b0381168114610eaa57600080fd5b919050565b600060208284031215610ec157600080fd5b610eca82610e93565b9392505050565b6000815180845260005b81811015610ef757602081850181015186830182015201610edb565b506000602082860101526020601f19601f83011685010191505092915050565b602081526000825160c06020840152610f3360e0840182610ed1565b90506020840151601f19848303016040850152610f508282610ed1565b91505060018060a01b03604085015116606084015260608401516080840152608084015160a084015260a0840151151560c08401528091505092915050565b634e487b7160e01b600052604160045260246000fd5b600082601f830112610fb657600080fd5b813567ffffffffffffffff80821115610fd157610fd1610f8f565b604051601f8301601f19908116603f01168101908282118183101715610ff957610ff9610f8f565b8160405283815286602085880101111561101257600080fd5b836020870160208301376000602085830101528094505050505092915050565b60008060006060848603121561104757600080fd5b61105084610e93565b9250602084013567ffffffffffffffff8082111561106d57600080fd5b61107987838801610fa5565b9350604086013591508082111561108f57600080fd5b5061109c86828701610fa5565b9150509250925092565b600080604083850312156110b957600080fd5b6110c283610e93565b91506110d060208401610e93565b90509250929050565b600080604083850312156110ec57600080fd5b823567ffffffffffffffff8082111561110457600080fd5b61111086838701610fa5565b9350602085013591508082111561112657600080fd5b5061113385828601610fa5565b9150509250929050565b60c08152600061115060c0830189610ed1565b82810360208401526111628189610ed1565b6001600160a01b03979097166040840152505060608101939093526080830191909152151560a09091015292915050565b602080825260169082015275141c9bd99a5b1948191bd95cc81b9bdd08195e1a5cdd60521b604082015260600190565b600181811c908216806111d757607f821691505b6020821081036111f757634e487b7160e01b600052602260045260246000fd5b50919050565b601f82111561124757600081815260208120601f850160051c810160208610156112245750805b601f850160051c820191505b8181101561124357828155600101611230565b5050505b505050565b815167ffffffffffffffff81111561126657611266610f8f565b61127a8161127484546111c3565b846111fd565b602080601f8311600181146112af57600084156112975750858301515b600019600386901b1c1916600185901b178555611243565b600085815260208120601f198616915b828110156112de578886015182559484019460019091019084016112bf565b50858210156112fc5787850151600019600388901b60f8161c191681555b5050505050600190811b01905550565b634e487b7160e01b600052601160045260246000fd5b6000816113315761133161130c565b506000190190565b60006001820161134b5761134b61130c565b506001019056fea264697066735822122060d9d014e099ef197b0e44493ee62f2f7a3c91588ae4b51f79ee0c09cc83df4264736f6c63430008130033",
  "linkReferences": {},
  "deployedLinkReferences": {}
}