{
  "_format": "hh-sol-artifact-1",
  "contractName": "ArtLoan",
  "sourceName": "contracts/ArtLoan.sol",
  "abi": [
    {
      "inputs": [
        {
          "internalType": "address",
          "name": "_coreToken",
          "type": "address"
        },
        {
          "internalType": "address",
          "name": "_nftContract",
          "type": "address"
        },
        {
          "internalType": "uint256",
          "name": "_interestRate",
          "type": "uint256"
        },
        {
          "internalType": "uint256",
          "name": "_loanDuration",
          "type": "uint256"
        }
      ],
      "stateMutability": "nonpayable",
      "type": "constructor"
    },
    {
      "anonymous": false,
      "inputs": [
        {
          "indexed": true,
          "internalType": "address",
          "name": "borrower",
          "type": "address"
        },
        {
          "indexed": true,
          "internalType": "uint256",
          "name": "tokenId",
          "type": "uint256"
        },
        {
          "indexed": false,
          "internalType": "uint256",
          "name": "amount",
          "type": "uint256"
        }
      ],
      "name": "LoanCreated",
      "type": "event"
    },
    {
      "anonymous": false,
      "inputs": [
        {
          "indexed": true,
          "internalType": "address",
          "name": "borrower",
          "type": "address"
        },
        {
          "indexed": true,
          "internalType": "uint256",
          "name": "tokenId",
          "type": "uint256"
        }
      ],
      "name": "LoanLiquidated",
      "type": "event"
    },
    {
      "anonymous": false,
      "inputs": [
        {
          "indexed": true,
          "internalType": "address",
          "name": "borrower",
          "type": "address"
        },
        {
          "indexed": true,
          "internalType": "uint256",
          "name": "tokenId",
          "type": "uint256"
        },
        {
          "indexed": false,
          "internalType": "uint256",
          "name": "amount",
          "type": "uint256"
        }
      ],
      "name": "LoanRepaid",
      "type": "event"
    },
    {
      "anonymous": false,
      "inputs": [
        {
          "indexed": true,
          "internalType": "address",
          "name": "previousOwner",
          "type": "address"
        },
        {
          "indexed": true,
          "internalType": "address",
          "name": "newOwner",
          "type": "address"
        }
      ],
      "name": "OwnershipTransferred",
      "type": "event"
    },
    {
      "inputs": [
        {
          "internalType": "uint256",
          "name": "_amount",
          "type": "uint256"
        },
        {
          "internalType": "uint256",
          "name": "_dueDate",
          "type": "uint256"
        }
      ],
      "name": "calculateInterest",
      "outputs": [
        {
          "internalType": "uint256",
          "name": "",
          "type": "uint256"
        }
      ],
      "stateMutability": "view",
      "type": "function"
    },
    {
      "inputs": [],
      "name": "coreToken",
      "outputs": [
        {
          "internalType": "contract IERC20",
          "name": "",
          "type": "address"
        }
      ],
      "stateMutability": "view",
      "type": "function"
    },
    {
      "inputs": [
        {
          "internalType": "uint256",
          "name": "_tokenId",
          "type": "uint256"
        },
        {
          "internalType": "uint256",
          "name": "_amount",
          "type": "uint256"
        }
      ],
      "name": "createLoan",
      "outputs": [],
      "stateMutability": "nonpayable",
      "type": "function"
    },
    {
      "inputs": [],
      "name": "interestRate",
      "outputs": [
        {
          "internalType": "uint256",
          "name": "",
          "type": "uint256"
        }
      ],
      "stateMutability": "view",
      "type": "function"
    },
    {
      "inputs": [
        {
          "internalType": "uint256",
          "name": "_tokenId",
          "type": "uint256"
        }
      ],
      "name": "liquidateLoan",
      "outputs": [],
      "stateMutability": "nonpayable",
      "type": "function"
    },
    {
      "inputs": [],
      "name": "loanDuration",
      "outputs": [
        {
          "internalType": "uint256",
          "name": "",
          "type": "uint256"
        }
      ],
      "stateMutability": "view",
      "type": "function"
    },
    {
      "inputs": [
        {
          "internalType": "uint256",
          "name": "",
          "type": "uint256"
        }
      ],
      "name": "loans",
      "outputs": [
        {
          "internalType": "address",
          "name": "borrower",
          "type": "address"
        },
        {
          "internalType": "uint256",
          "name": "amount",
          "type": "uint256"
        },
        {
          "internalType": "uint256",
          "name": "dueDate",
          "type": "uint256"
        },
        {
          "internalType": "bool",
          "name": "repaid",
          "type": "bool"
        },
        {
          "internalType": "bool",
          "name": "liquidated",
          "type": "bool"
        }
      ],
      "stateMutability": "view",
      "type": "function"
    },
    {
      "inputs": [],
      "name": "nftContract",
      "outputs": [
        {
          "internalType": "contract IERC721",
          "name": "",
          "type": "address"
        }
      ],
      "stateMutability": "view",
      "type": "function"
    },
    {
      "inputs": [],
      "name": "owner",
      "outputs": [
        {
          "internalType": "address",
          "name": "",
          "type": "address"
        }
      ],
      "stateMutability": "view",
      "type": "function"
    },
    {
      "inputs": [],
      "name": "renounceOwnership",
      "outputs": [],
      "stateMutability": "nonpayable",
      "type": "function"
    },
    {
      "inputs": [
        {
          "internalType": "uint256",
          "name": "_tokenId",
          "type": "uint256"
        }
      ],
      "name": "repayLoan",
      "outputs": [],
      "stateMutability": "nonpayable",
      "type": "function"
    },
    {
      "inputs": [
        {
          "internalType": "uint256",
          "name": "_newRate",
          "type": "uint256"
        }
      ],
      "name": "setInterestRate",
      "outputs": [],
      "stateMutability": "nonpayable",
      "type": "function"
    },
    {
      "inputs": [
        {
          "internalType": "uint256",
          "name": "_newDuration",
          "type": "uint256"
        }
      ],
      "name": "setLoanDuration",
      "outputs": [],
      "stateMutability": "nonpayable",
      "type": "function"
    },
    {
      "inputs": [
        {
          "internalType": "address",
          "name": "newOwner",
          "type": "address"
        }
      ],
      "name": "transferOwnership",
      "outputs": [],
      "stateMutability": "nonpayable",
      "type": "function"
    }
  ],
  "bytecode": "0x608060405234801561001057600080fd5b50604051610e15380380610e1583398101604081905261002f916100e9565b600160005561003d3361007b565b600280546001600160a01b039586166001600160a01b031991821617909155600380549490951693169290921790925560059190915560065561012c565b600180546001600160a01b038381166001600160a01b0319831681179093556040519116919082907f8be0079c531659141344cd1fd0a4f28419497f9722a3daafe3b4186f6b6457e090600090a35050565b80516001600160a01b03811681146100e457600080fd5b919050565b600080600080608085870312156100ff57600080fd5b610108856100cd565b9350610116602086016100cd565b6040860151606090960151949790965092505050565b610cda8061013b6000396000f3fe608060405234801561001057600080fd5b50600436106100ea5760003560e01c8063ccdd9f5d1161008c578063e1ec3c6811610066578063e1ec3c68146101c3578063efdd7c0714610244578063f2fde38b14610257578063f5521bf11461026a57600080fd5b8063ccdd9f5d1461018a578063d2780fa01461019d578063d56d229d146101b057600080fd5b80637c3a00fd116100c85780637c3a00fd1461013c5780638da5cb5b1461015357806398cd90b514610164578063ab7b1c891461017757600080fd5b80630c2b72e9146100ef5780635f84f3021461011f578063715018a614610134575b600080fd5b600254610102906001600160a01b031681565b6040516001600160a01b0390911681526020015b60405180910390f35b61013261012d366004610b1e565b610273565b005b610132610280565b61014560055481565b604051908152602001610116565b6001546001600160a01b0316610102565b610132610172366004610b37565b610294565b610132610185366004610b1e565b610596565b610132610198366004610b1e565b61079e565b6101326101ab366004610b1e565b610905565b600354610102906001600160a01b031681565b61020e6101d1366004610b1e565b60046020526000908152604090208054600182015460028301546003909301546001600160a01b0390921692909160ff8082169161010090041685565b604080516001600160a01b039096168652602086019490945292840191909152151560608301521515608082015260a001610116565b610145610252366004610b37565b610912565b610132610265366004610b6e565b61096c565b61014560065481565b61027b6109e2565b600555565b6102886109e2565b6102926000610a3c565b565b61029c610a8e565b6003546040516331a9108f60e11b81526004810184905233916001600160a01b031690636352211e90602401602060405180830381865afa1580156102e5573d6000803e3d6000fd5b505050506040513d601f19601f820116820180604052508101906103099190610b8b565b6001600160a01b0316146103645760405162461bcd60e51b815260206004820152601860248201527f4e6f7420746865206f776e6572206f6620746865204e4654000000000000000060448201526064015b60405180910390fd5b600082815260046020526040902060010154156103c35760405162461bcd60e51b815260206004820181905260248201527f4c6f616e20616c72656164792065786973747320666f722074686973204e4654604482015260640161035b565b6003546040516323b872dd60e01b81526001600160a01b03909116906323b872dd906103f790339030908790600401610ba8565b600060405180830381600087803b15801561041157600080fd5b505af1158015610425573d6000803e3d6000fd5b505060025460405163a9059cbb60e01b8152336004820152602481018590526001600160a01b03909116925063a9059cbb91506044016020604051808303816000875af115801561047a573d6000803e3d6000fd5b505050506040513d601f19601f8201168201806040525081019061049e9190610bcc565b506040518060a00160405280336001600160a01b031681526020018281526020016104d460065442610ae790919063ffffffff16565b81526000602080830182905260409283018290528582526004815290829020835181546001600160a01b039091166001600160a01b031990911617815583820151600182015583830151600282015560608401516003909101805460809095015115156101000261ff00199215159290921661ffff19909516949094171790925551828152839133917f58d170de3a12438e22d81380f353b2fcac86f0a708a1374deaa5c6322a95992f910160405180910390a36105926001600055565b5050565b61059e610a8e565b600081815260046020526040902080546001600160a01b031633146105f85760405162461bcd60e51b815260206004820152601060248201526f2737ba103a3432903137b93937bbb2b960811b604482015260640161035b565b600381015460ff1615801561061757506003810154610100900460ff16155b6106335760405162461bcd60e51b815260040161035b90610bee565b600061064782600101548360020154610912565b90506000610662828460010154610ae790919063ffffffff16565b6002546040516323b872dd60e01b81529192506001600160a01b0316906323b872dd9061069790339030908690600401610ba8565b6020604051808303816000875af11580156106b6573d6000803e3d6000fd5b505050506040513d601f19601f820116820180604052508101906106da9190610bcc565b506003546040516323b872dd60e01b81526001600160a01b03909116906323b872dd9061070f90309033908990600401610ba8565b600060405180830381600087803b15801561072957600080fd5b505af115801561073d573d6000803e3d6000fd5b50505060038401805460ff1916600117905550604051849033907fc7ce0a35f17b490de2a317e7fecb2cae86b1abffb03800b2f492823521382698906107869085815260200190565b60405180910390a350505061079b6001600055565b50565b6107a6610a8e565b6107ae6109e2565b6000818152600460205260409020600381015460ff161580156107db57506003810154610100900460ff16155b6107f75760405162461bcd60e51b815260040161035b90610bee565b8060020154421161083d5760405162461bcd60e51b815260206004820152601060248201526f4c6f616e206e6f74207965742064756560801b604482015260640161035b565b6003546001600160a01b03166323b872dd306108616001546001600160a01b031690565b856040518463ffffffff1660e01b815260040161088093929190610ba8565b600060405180830381600087803b15801561089a57600080fd5b505af11580156108ae573d6000803e3d6000fd5b50505060038201805461ff00191661010017905550805460405183916001600160a01b0316907fd75168f1c9346a6c18eaeba0d3c95ea70b5dc2c0c280274a670c97cb8e4f415b90600090a35061079b6001600055565b61090d6109e2565b600655565b60008082421161092357600061092d565b61092d8342610afa565b905061096261271061095c6301e1338061095c856109566005548b610b0690919063ffffffff16565b90610b06565b90610b12565b9150505b92915050565b6109746109e2565b6001600160a01b0381166109d95760405162461bcd60e51b815260206004820152602660248201527f4f776e61626c653a206e6577206f776e657220697320746865207a65726f206160448201526564647265737360d01b606482015260840161035b565b61079b81610a3c565b6001546001600160a01b031633146102925760405162461bcd60e51b815260206004820181905260248201527f4f776e61626c653a2063616c6c6572206973206e6f7420746865206f776e6572604482015260640161035b565b600180546001600160a01b038381166001600160a01b0319831681179093556040519116919082907f8be0079c531659141344cd1fd0a4f28419497f9722a3daafe3b4186f6b6457e090600090a35050565b600260005403610ae05760405162461bcd60e51b815260206004820152601f60248201527f5265656e7472616e637947756172643a207265656e7472616e742063616c6c00604482015260640161035b565b6002600055565b6000610af38284610c45565b9392505050565b6000610af38284610c58565b6000610af38284610c6b565b6000610af38284610c82565b600060208284031215610b3057600080fd5b5035919050565b60008060408385031215610b4a57600080fd5b50508035926020909101359150565b6001600160a01b038116811461079b57600080fd5b600060208284031215610b8057600080fd5b8135610af381610b59565b600060208284031215610b9d57600080fd5b8151610af381610b59565b6001600160a01b039384168152919092166020820152604081019190915260600190565b600060208284031215610bde57600080fd5b81518015158114610af357600080fd5b60208082526021908201527f4c6f616e20616c726561647920726570616964206f72206c69717569646174656040820152601960fa1b606082015260800190565b634e487b7160e01b600052601160045260246000fd5b8082018082111561096657610966610c2f565b8181038181111561096657610966610c2f565b808202811582820484141761096657610966610c2f565b600082610c9f57634e487b7160e01b600052601260045260246000fd5b50049056fea2646970667358221220a98d886d1f8a07f261891d1ee32d88fccdd7a443b15638b3498e6b57b2aa186964736f6c63430008130033",
  "linkReferences": {},
  "deployedLinkReferences": {}
}