{
  "_format": "hh-sol-artifact-1",
  "contractName": "Artwork",
  "sourceName": "contracts/Artwork.sol",
  "abi": [
    {
      "inputs": [],
      "stateMutability": "nonpayable",
      "type": "constructor"
    },
    {
      "anonymous": false,
      "inputs": [
        {
          "indexed": true,
          "internalType": "address",
          "name": "owner",
          "type": "address"
        },
        {
          "indexed": true,
          "internalType": "address",
          "name": "approved",
          "type": "address"
        },
        {
          "indexed": true,
          "internalType": "uint256",
          "name": "tokenId",
          "type": "uint256"
        }
      ],
      "name": "Approval",
      "type": "event"
    },
    {
      "anonymous": false,
      "inputs": [
        {
          "indexed": true,
          "internalType": "address",
          "name": "owner",
          "type": "address"
        },
        {
          "indexed": true,
          "internalType": "address",
          "name": "operator",
          "type": "address"
        },
        {
          "indexed": false,
          "internalType": "bool",
          "name": "approved",
          "type": "bool"
        }
      ],
      "name": "ApprovalForAll",
      "type": "event"
    },
    {
      "anonymous": false,
      "inputs": [
        {
          "indexed": true,
          "internalType": "uint256",
          "name": "tokenId",
          "type": "uint256"
        },
        {
          "indexed": true,
          "internalType": "address",
          "name": "artist",
          "type": "address"
        },
        {
          "indexed": false,
          "internalType": "string",
          "name": "tokenURI",
          "type": "string"
        }
      ],
      "name": "ArtworkCreated",
      "type": "event"
    },
    {
      "anonymous": false,
      "inputs": [
        {
          "indexed": true,
          "internalType": "uint256",
          "name": "tokenId",
          "type": "uint256"
        },
        {
          "indexed": false,
          "internalType": "uint256",
          "name": "newPrice",
          "type": "uint256"
        }
      ],
      "name": "ArtworkPriceUpdated",
      "type": "event"
    },
    {
      "anonymous": false,
      "inputs": [
        {
          "indexed": true,
          "internalType": "uint256",
          "name": "tokenId",
          "type": "uint256"
        },
        {
          "indexed": true,
          "internalType": "address",
          "name": "from",
          "type": "address"
        },
        {
          "indexed": true,
          "internalType": "address",
          "name": "to",
          "type": "address"
        },
        {
          "indexed": false,
          "internalType": "uint256",
          "name": "price",
          "type": "uint256"
        }
      ],
      "name": "ArtworkSold",
      "type": "event"
    },
    {
      "anonymous": false,
      "inputs": [
        {
          "indexed": false,
          "internalType": "uint256",
          "name": "_fromTokenId",
          "type": "uint256"
        },
        {
          "indexed": false,
          "internalType": "uint256",
          "name": "_toTokenId",
          "type": "uint256"
        }
      ],
      "name": "BatchMetadataUpdate",
      "type": "event"
    },
    {
      "anonymous": false,
      "inputs": [
        {
          "indexed": false,
          "internalType": "uint256",
          "name": "_tokenId",
          "type": "uint256"
        }
      ],
      "name": "MetadataUpdate",
      "type": "event"
    },
    {
      "anonymous": false,
      "inputs": [
        {
          "indexed": true,
          "internalType": "address",
          "name": "previousOwner",
          "type": "address"
        },
        {
          "indexed": true,
          "internalType": "address",
          "name": "newOwner",
          "type": "address"
        }
      ],
      "name": "OwnershipTransferred",
      "type": "event"
    },
    {
      "anonymous": false,
      "inputs": [
        {
          "indexed": true,
          "internalType": "address",
          "name": "from",
          "type": "address"
        },
        {
          "indexed": true,
          "internalType": "address",
          "name": "to",
          "type": "address"
        },
        {
          "indexed": true,
          "internalType": "uint256",
          "name": "tokenId",
          "type": "uint256"
        }
      ],
      "name": "Transfer",
      "type": "event"
    },
    {
      "inputs": [
        {
          "internalType": "address",
          "name": "to",
          "type": "address"
        },
        {
          "internalType": "uint256",
          "name": "tokenId",
          "type": "uint256"
        }
      ],
      "name": "approve",
      "outputs": [],
      "stateMutability": "nonpayable",
      "type": "function"
    },
    {
      "inputs": [
        {
          "internalType": "uint256",
          "name": "",
          "type": "uint256"
        }
      ],
      "name": "artworks",
      "outputs": [
        {
          "internalType": "address",
          "name": "artist",
          "type": "address"
        },
        {
          "internalType": "uint256",
          "name": "royaltyPercentage",
          "type": "uint256"
        },
        {
          "internalType": "uint256",
          "name": "price",
          "type": "uint256"
        },
        {
          "internalType": "bool",
          "name": "isForSale",
          "type": "bool"
        }
      ],
      "stateMutability": "view",
      "type": "function"
    },
    {
      "inputs": [
        {
          "internalType": "address",
          "name": "owner",
          "type": "address"
        }
      ],
      "name": "balanceOf",
      "outputs": [
        {
          "internalType": "uint256",
          "name": "",
          "type": "uint256"
        }
      ],
      "stateMutability": "view",
      "type": "function"
    },
    {
      "inputs": [
        {
          "internalType": "uint256",
          "name": "tokenId",
          "type": "uint256"
        }
      ],
      "name": "buyArtwork",
      "outputs": [],
      "stateMutability": "payable",
      "type": "function"
    },
    {
      "inputs": [
        {
          "internalType": "string",
          "name": "tokenURI",
          "type": "string"
        },
        {
          "internalType": "uint256",
          "name": "_royaltyPercentage",
          "type": "uint256"
        },
        {
          "internalType": "uint256",
          "name": "_price",
          "type": "uint256"
        }
      ],
      "name": "createArtwork",
      "outputs": [
        {
          "internalType": "uint256",
          "name": "",
          "type": "uint256"
        }
      ],
      "stateMutability": "nonpayable",
      "type": "function"
    },
    {
      "inputs": [
        {
          "internalType": "uint256",
          "name": "tokenId",
          "type": "uint256"
        }
      ],
      "name": "getApproved",
      "outputs": [
        {
          "internalType": "address",
          "name": "",
          "type": "address"
        }
      ],
      "stateMutability": "view",
      "type": "function"
    },
    {
      "inputs": [
        {
          "internalType": "address",
          "name": "owner",
          "type": "address"
        },
        {
          "internalType": "address",
          "name": "operator",
          "type": "address"
        }
      ],
      "name": "isApprovedForAll",
      "outputs": [
        {
          "internalType": "bool",
          "name": "",
          "type": "bool"
        }
      ],
      "stateMutability": "view",
      "type": "function"
    },
    {
      "inputs": [],
      "name": "name",
      "outputs": [
        {
          "internalType": "string",
          "name": "",
          "type": "string"
        }
      ],
      "stateMutability": "view",
      "type": "function"
    },
    {
      "inputs": [],
      "name": "owner",
      "outputs": [
        {
          "internalType": "address",
          "name": "",
          "type": "address"
        }
      ],
      "stateMutability": "view",
      "type": "function"
    },
    {
      "inputs": [
        {
          "internalType": "uint256",
          "name": "tokenId",
          "type": "uint256"
        }
      ],
      "name": "ownerOf",
      "outputs": [
        {
          "internalType": "address",
          "name": "",
          "type": "address"
        }
      ],
      "stateMutability": "view",
      "type": "function"
    },
    {
      "inputs": [],
      "name": "renounceOwnership",
      "outputs": [],
      "stateMutability": "nonpayable",
      "type": "function"
    },
    {
      "inputs": [
        {
          "internalType": "address",
          "name": "from",
          "type": "address"
        },
        {
          "internalType": "address",
          "name": "to",
          "type": "address"
        },
        {
          "internalType": "uint256",
          "name": "tokenId",
          "type": "uint256"
        }
      ],
      "name": "safeTransferFrom",
      "outputs": [],
      "stateMutability": "nonpayable",
      "type": "function"
    },
    {
      "inputs": [
        {
          "internalType": "address",
          "name": "from",
          "type": "address"
        },
        {
          "internalType": "address",
          "name": "to",
          "type": "address"
        },
        {
          "internalType": "uint256",
          "name": "tokenId",
          "type": "uint256"
        },
        {
          "internalType": "bytes",
          "name": "data",
          "type": "bytes"
        }
      ],
      "name": "safeTransferFrom",
      "outputs": [],
      "stateMutability": "nonpayable",
      "type": "function"
    },
    {
      "inputs": [
        {
          "internalType": "address",
          "name": "operator",
          "type": "address"
        },
        {
          "internalType": "bool",
          "name": "approved",
          "type": "bool"
        }
      ],
      "name": "setApprovalForAll",
      "outputs": [],
      "stateMutability": "nonpayable",
      "type": "function"
    },
    {
      "inputs": [
        {
          "internalType": "bytes4",
          "name": "interfaceId",
          "type": "bytes4"
        }
      ],
      "name": "supportsInterface",
      "outputs": [
        {
          "internalType": "bool",
          "name": "",
          "type": "bool"
        }
      ],
      "stateMutability": "view",
      "type": "function"
    },
    {
      "inputs": [],
      "name": "symbol",
      "outputs": [
        {
          "internalType": "string",
          "name": "",
          "type": "string"
        }
      ],
      "stateMutability": "view",
      "type": "function"
    },
    {
      "inputs": [
        {
          "internalType": "uint256",
          "name": "tokenId",
          "type": "uint256"
        }
      ],
      "name": "toggleSaleStatus",
      "outputs": [],
      "stateMutability": "nonpayable",
      "type": "function"
    },
    {
      "inputs": [
        {
          "internalType": "uint256",
          "name": "tokenId",
          "type": "uint256"
        }
      ],
      "name": "tokenURI",
      "outputs": [
        {
          "internalType": "string",
          "name": "",
          "type": "string"
        }
      ],
      "stateMutability": "view",
      "type": "function"
    },
    {
      "inputs": [
        {
          "internalType": "address",
          "name": "from",
          "type": "address"
        },
        {
          "internalType": "address",
          "name": "to",
          "type": "address"
        },
        {
          "internalType": "uint256",
          "name": "tokenId",
          "type": "uint256"
        }
      ],
      "name": "transferFrom",
      "outputs": [],
      "stateMutability": "nonpayable",
      "type": "function"
    },
    {
      "inputs": [
        {
          "internalType": "address",
          "name": "newOwner",
          "type": "address"
        }
      ],
      "name": "transferOwnership",
      "outputs": [],
      "stateMutability": "nonpayable",
      "type": "function"
    },
    {
      "inputs": [
        {
          "internalType": "uint256",
          "name": "tokenId",
          "type": "uint256"
        },
        {
          "internalType": "uint256",
          "name": "newPrice",
          "type": "uint256"
        }
      ],
      "name": "updateArtworkPrice",
      "outputs": [],
      "stateMutability": "nonpayable",
      "type": "function"
    }
  ],
  "bytecode": "0x60806040523480156200001157600080fd5b506040518060400160405280600b81526020016a436f7265417274776f726b60a81b8152506040518060400160405280600481526020016310d0549560e21b815250816000908162000064919062000196565b50600162000073828262000196565b505050620000906200008a6200009b60201b60201c565b6200009f565b600160085562000262565b3390565b600780546001600160a01b038381166001600160a01b0319831681179093556040519116919082907f8be0079c531659141344cd1fd0a4f28419497f9722a3daafe3b4186f6b6457e090600090a35050565b634e487b7160e01b600052604160045260246000fd5b600181811c908216806200011c57607f821691505b6020821081036200013d57634e487b7160e01b600052602260045260246000fd5b50919050565b601f8211156200019157600081815260208120601f850160051c810160208610156200016c5750805b601f850160051c820191505b818110156200018d5782815560010162000178565b5050505b505050565b81516001600160401b03811115620001b257620001b2620000f1565b620001ca81620001c3845462000107565b8462000143565b602080601f831160018114620002025760008415620001e95750858301515b600019600386901b1c1916600185901b1785556200018d565b600085815260208120601f198616915b82811015620002335788860151825594840194600190910190840162000212565b5085821015620002525787850151600019600388901b60f8161c191681555b5050505050600190811b01905550565b611f7a80620002726000396000f3fe60806040526004361061012a5760003560e01c806370a08231116100ab578063a22cb4651161006f578063a22cb46514610391578063b88d4fde146103b1578063c87b56dd146103d1578063e44c3c4b146103f1578063e985e9c514610404578063f2fde38b1461042457600080fd5b806370a0823114610309578063715018a6146103295780638da5cb5b1461033e57806395d89b411461035c578063a078c1a01461037157600080fd5b806342842e0e116100f257806342842e0e146102005780634b602673146102205780635001257e1461029b5780635a3b102c146102bb5780636352211e146102e957600080fd5b806301ffc9a71461012f57806306fdde0314610164578063081812fc14610186578063095ea7b3146101be57806323b872dd146101e0575b600080fd5b34801561013b57600080fd5b5061014f61014a3660046118cc565b610444565b60405190151581526020015b60405180910390f35b34801561017057600080fd5b5061017961046f565b60405161015b9190611939565b34801561019257600080fd5b506101a66101a136600461194c565b610501565b6040516001600160a01b03909116815260200161015b565b3480156101ca57600080fd5b506101de6101d9366004611981565b610528565b005b3480156101ec57600080fd5b506101de6101fb3660046119ab565b610642565b34801561020c57600080fd5b506101de61021b3660046119ab565b610673565b34801561022c57600080fd5b5061026f61023b36600461194c565b600a6020526000908152604090208054600182015460028301546003909301546001600160a01b0390921692909160ff1684565b604080516001600160a01b0390951685526020850193909352918301521515606082015260800161015b565b3480156102a757600080fd5b506101de6102b63660046119e7565b61068e565b3480156102c757600080fd5b506102db6102d6366004611a95565b610757565b60405190815260200161015b565b3480156102f557600080fd5b506101a661030436600461194c565b6108b6565b34801561031557600080fd5b506102db610324366004611af7565b610916565b34801561033557600080fd5b506101de61099c565b34801561034a57600080fd5b506007546001600160a01b03166101a6565b34801561036857600080fd5b506101796109b0565b34801561037d57600080fd5b506101de61038c36600461194c565b6109bf565b34801561039d57600080fd5b506101de6103ac366004611b12565b610a57565b3480156103bd57600080fd5b506101de6103cc366004611b4e565b610a66565b3480156103dd57600080fd5b506101796103ec36600461194c565b610a9e565b6101de6103ff36600461194c565b610bae565b34801561041057600080fd5b5061014f61041f366004611bca565b610e17565b34801561043057600080fd5b506101de61043f366004611af7565b610e45565b60006001600160e01b03198216632483248360e11b1480610469575061046982610ebb565b92915050565b60606000805461047e90611bfd565b80601f01602080910402602001604051908101604052809291908181526020018280546104aa90611bfd565b80156104f75780601f106104cc576101008083540402835291602001916104f7565b820191906000526020600020905b8154815290600101906020018083116104da57829003601f168201915b5050505050905090565b600061050c82610f0b565b506000908152600460205260409020546001600160a01b031690565b6000610533826108b6565b9050806001600160a01b0316836001600160a01b0316036105a55760405162461bcd60e51b815260206004820152602160248201527f4552433732313a20617070726f76616c20746f2063757272656e74206f776e656044820152603960f91b60648201526084015b60405180910390fd5b336001600160a01b03821614806105c157506105c18133610e17565b6106335760405162461bcd60e51b815260206004820152603d60248201527f4552433732313a20617070726f76652063616c6c6572206973206e6f7420746f60448201527f6b656e206f776e6572206f7220617070726f76656420666f7220616c6c000000606482015260840161059c565b61063d8383610f5b565b505050565b61064c3382610fc9565b6106685760405162461bcd60e51b815260040161059c90611c37565b61063d838383611027565b61063d83838360405180602001604052806000815250610a66565b6106978261118b565b6106b35760405162461bcd60e51b815260040161059c90611c84565b336106bd836108b6565b6001600160a01b0316146107035760405162461bcd60e51b815260206004820152600d60248201526c2737ba103a34329037bbb732b960991b604482015260640161059c565b6000828152600a6020526040908190206002018290555182907f7fab306d9a1daf3321ba11c5a6c2eced49d512dae2b81821a050b0182dedca5d9061074b9084815260200190565b60405180910390a25050565b60006107616111a8565b60648311156107c75760405162461bcd60e51b815260206004820152602c60248201527f526f79616c74792070657263656e74616765206d75737420626520626574776560448201526b0656e203020616e64203130360a41b606482015260840161059c565b6107d5600980546001019055565b60006107e060095490565b90506107ec3382611201565b6107f6818661136e565b604080516080810182523380825260208083018881528385018881526001606086018181526000898152600a90955293879020955186546001600160a01b0319166001600160a01b03909116178655915191850191909155516002840155516003909201805460ff191692151592909217909155905182907f927fd78726fef3baa6a1e9a8614e26eda167c1d8ac04cd085b34b8e7a4d857729061089b908990611939565b60405180910390a390506108af6001600855565b9392505050565b6000818152600260205260408120546001600160a01b0316806104695760405162461bcd60e51b8152602060048201526018602482015277115490cdcc8c4e881a5b9d985b1a59081d1bdad95b88125160421b604482015260640161059c565b60006001600160a01b0382166109805760405162461bcd60e51b815260206004820152602960248201527f4552433732313a2061646472657373207a65726f206973206e6f7420612076616044820152683634b21037bbb732b960b91b606482015260840161059c565b506001600160a01b031660009081526003602052604090205490565b6109a461142a565b6109ae6000611484565b565b60606001805461047e90611bfd565b6109c88161118b565b6109e45760405162461bcd60e51b815260040161059c90611c84565b336109ee826108b6565b6001600160a01b031614610a345760405162461bcd60e51b815260206004820152600d60248201526c2737ba103a34329037bbb732b960991b604482015260640161059c565b6000908152600a60205260409020600301805460ff19811660ff90911615179055565b610a623383836114d6565b5050565b610a703383610fc9565b610a8c5760405162461bcd60e51b815260040161059c90611c37565b610a98848484846115a4565b50505050565b6060610aa982610f0b565b60008281526006602052604081208054610ac290611bfd565b80601f0160208091040260200160405190810160405280929190818152602001828054610aee90611bfd565b8015610b3b5780601f10610b1057610100808354040283529160200191610b3b565b820191906000526020600020905b815481529060010190602001808311610b1e57829003601f168201915b505050505090506000610b5960408051602081019091526000815290565b90508051600003610b6b575092915050565b815115610b9d578082604051602001610b85929190611cb4565b60405160208183030381529060405292505050919050565b610ba6846115d7565b949350505050565b610bb66111a8565b610bbf8161118b565b610bdb5760405162461bcd60e51b815260040161059c90611c84565b6000818152600a602052604090206003015460ff16610c3c5760405162461bcd60e51b815260206004820152601760248201527f417274776f726b206973206e6f7420666f722073616c65000000000000000000604482015260640161059c565b6000818152600a6020526040902060020154341015610c945760405162461bcd60e51b8152602060048201526014602482015273125b9cdd59999a58da595b9d081c185e5b595b9d60621b604482015260640161059c565b6000610c9f826108b6565b6000838152600a60205260408120600281015460019091015492935091606490610cc99084611cf9565b610cd39190611d10565b9050610ce0833386611027565b6000848152600a60205260408082205490516001600160a01b039091169183156108fc02918491818181858888f19350505050158015610d24573d6000803e3d6000fd5b506001600160a01b0383166108fc610d3c8385611d32565b6040518115909202916000818181858888f19350505050158015610d64573d6000803e3d6000fd5b5081341115610da557336108fc610d7b8434611d32565b6040518115909202916000818181858888f19350505050158015610da3573d6000803e3d6000fd5b505b6000848152600a602052604090819020600301805460ff191690555133906001600160a01b0385169086907f0634626e616f8a7485091cf43f024011ba5d9b8fcbe8eac44a3efe20f7dfb60490610dff9087815260200190565b60405180910390a4505050610e146001600855565b50565b6001600160a01b03918216600090815260056020908152604080832093909416825291909152205460ff1690565b610e4d61142a565b6001600160a01b038116610eb25760405162461bcd60e51b815260206004820152602660248201527f4f776e61626c653a206e6577206f776e657220697320746865207a65726f206160448201526564647265737360d01b606482015260840161059c565b610e1481611484565b60006001600160e01b031982166380ac58cd60e01b1480610eec57506001600160e01b03198216635b5e139f60e01b145b8061046957506301ffc9a760e01b6001600160e01b0319831614610469565b610f148161118b565b610e145760405162461bcd60e51b8152602060048201526018602482015277115490cdcc8c4e881a5b9d985b1a59081d1bdad95b88125160421b604482015260640161059c565b600081815260046020526040902080546001600160a01b0319166001600160a01b0384169081179091558190610f90826108b6565b6001600160a01b03167f8c5be1e5ebec7d5bd14f71427d1e84f3dd0314c0f7b2291e5b200ac8c7c3b92560405160405180910390a45050565b600080610fd5836108b6565b9050806001600160a01b0316846001600160a01b03161480610ffc5750610ffc8185610e17565b80610ba65750836001600160a01b031661101584610501565b6001600160a01b031614949350505050565b826001600160a01b031661103a826108b6565b6001600160a01b0316146110605760405162461bcd60e51b815260040161059c90611d45565b6001600160a01b0382166110c25760405162461bcd60e51b8152602060048201526024808201527f4552433732313a207472616e7366657220746f20746865207a65726f206164646044820152637265737360e01b606482015260840161059c565b826001600160a01b03166110d5826108b6565b6001600160a01b0316146110fb5760405162461bcd60e51b815260040161059c90611d45565b600081815260046020908152604080832080546001600160a01b03199081169091556001600160a01b0387811680865260038552838620805460001901905590871680865283862080546001019055868652600290945282852080549092168417909155905184937fddf252ad1be2c89b69c2b068fc378daa952ba7f163c4a11628f55a4df523b3ef91a4505050565b6000908152600260205260409020546001600160a01b0316151590565b6002600854036111fa5760405162461bcd60e51b815260206004820152601f60248201527f5265656e7472616e637947756172643a207265656e7472616e742063616c6c00604482015260640161059c565b6002600855565b6001600160a01b0382166112575760405162461bcd60e51b815260206004820181905260248201527f4552433732313a206d696e7420746f20746865207a65726f2061646472657373604482015260640161059c565b6112608161118b565b156112ad5760405162461bcd60e51b815260206004820152601c60248201527f4552433732313a20746f6b656e20616c7265616479206d696e74656400000000604482015260640161059c565b6112b68161118b565b156113035760405162461bcd60e51b815260206004820152601c60248201527f4552433732313a20746f6b656e20616c7265616479206d696e74656400000000604482015260640161059c565b6001600160a01b038216600081815260036020908152604080832080546001019055848352600290915280822080546001600160a01b0319168417905551839291907fddf252ad1be2c89b69c2b068fc378daa952ba7f163c4a11628f55a4df523b3ef908290a45050565b6113778261118b565b6113da5760405162461bcd60e51b815260206004820152602e60248201527f45524337323155524953746f726167653a2055524920736574206f66206e6f6e60448201526d32bc34b9ba32b73a103a37b5b2b760911b606482015260840161059c565b60008281526006602052604090206113f28282611dd8565b506040518281527ff8e1a15aba9398e019f0b49df1a4fde98ee17ae345cb5f6b5e2c27f5033e8ce79060200160405180910390a15050565b6007546001600160a01b031633146109ae5760405162461bcd60e51b815260206004820181905260248201527f4f776e61626c653a2063616c6c6572206973206e6f7420746865206f776e6572604482015260640161059c565b600780546001600160a01b038381166001600160a01b0319831681179093556040519116919082907f8be0079c531659141344cd1fd0a4f28419497f9722a3daafe3b4186f6b6457e090600090a35050565b816001600160a01b0316836001600160a01b0316036115375760405162461bcd60e51b815260206004820152601960248201527f4552433732313a20617070726f766520746f2063616c6c657200000000000000604482015260640161059c565b6001600160a01b03838116600081815260056020908152604080832094871680845294825291829020805460ff191686151590811790915591519182527f17307eab39ab6107e8899845ad3d59bd9653f200f220920489ca2b5937696c31910160405180910390a3505050565b6115af848484611027565b6115bb8484848461164a565b610a985760405162461bcd60e51b815260040161059c90611e98565b60606115e282610f0b565b60006115f960408051602081019091526000815290565b9050600081511161161957604051806020016040528060008152506108af565b806116238461174b565b604051602001611634929190611cb4565b6040516020818303038152906040529392505050565b60006001600160a01b0384163b1561174057604051630a85bd0160e11b81526001600160a01b0385169063150b7a029061168e903390899088908890600401611eea565b6020604051808303816000875af19250505080156116c9575060408051601f3d908101601f191682019092526116c691810190611f27565b60015b611726573d8080156116f7576040519150601f19603f3d011682016040523d82523d6000602084013e6116fc565b606091505b50805160000361171e5760405162461bcd60e51b815260040161059c90611e98565b805181602001fd5b6001600160e01b031916630a85bd0160e11b149050610ba6565b506001949350505050565b60606000611758836117de565b600101905060008167ffffffffffffffff81111561177857611778611a09565b6040519080825280601f01601f1916602001820160405280156117a2576020820181803683370190505b5090508181016020015b600019016f181899199a1a9b1b9c1cb0b131b232b360811b600a86061a8153600a85049450846117ac57509392505050565b60008072184f03e93ff9f4daa797ed6e38ed64bf6a1f0160401b831061181d5772184f03e93ff9f4daa797ed6e38ed64bf6a1f0160401b830492506040015b6d04ee2d6d415b85acef81000000008310611849576d04ee2d6d415b85acef8100000000830492506020015b662386f26fc10000831061186757662386f26fc10000830492506010015b6305f5e100831061187f576305f5e100830492506008015b612710831061189357612710830492506004015b606483106118a5576064830492506002015b600a83106104695760010192915050565b6001600160e01b031981168114610e1457600080fd5b6000602082840312156118de57600080fd5b81356108af816118b6565b60005b838110156119045781810151838201526020016118ec565b50506000910152565b600081518084526119258160208601602086016118e9565b601f01601f19169290920160200192915050565b6020815260006108af602083018461190d565b60006020828403121561195e57600080fd5b5035919050565b80356001600160a01b038116811461197c57600080fd5b919050565b6000806040838503121561199457600080fd5b61199d83611965565b946020939093013593505050565b6000806000606084860312156119c057600080fd5b6119c984611965565b92506119d760208501611965565b9150604084013590509250925092565b600080604083850312156119fa57600080fd5b50508035926020909101359150565b634e487b7160e01b600052604160045260246000fd5b600067ffffffffffffffff80841115611a3a57611a3a611a09565b604051601f8501601f19908116603f01168101908282118183101715611a6257611a62611a09565b81604052809350858152868686011115611a7b57600080fd5b858560208301376000602087830101525050509392505050565b600080600060608486031215611aaa57600080fd5b833567ffffffffffffffff811115611ac157600080fd5b8401601f81018613611ad257600080fd5b611ae186823560208401611a1f565b9660208601359650604090950135949350505050565b600060208284031215611b0957600080fd5b6108af82611965565b60008060408385031215611b2557600080fd5b611b2e83611965565b915060208301358015158114611b4357600080fd5b809150509250929050565b60008060008060808587031215611b6457600080fd5b611b6d85611965565b9350611b7b60208601611965565b925060408501359150606085013567ffffffffffffffff811115611b9e57600080fd5b8501601f81018713611baf57600080fd5b611bbe87823560208401611a1f565b91505092959194509250565b60008060408385031215611bdd57600080fd5b611be683611965565b9150611bf460208401611965565b90509250929050565b600181811c90821680611c1157607f821691505b602082108103611c3157634e487b7160e01b600052602260045260246000fd5b50919050565b6020808252602d908201527f4552433732313a2063616c6c6572206973206e6f7420746f6b656e206f776e6560408201526c1c881bdc88185c1c1c9bdd9959609a1b606082015260800190565b602080825260169082015275105c9d1ddbdc9ac8191bd95cc81b9bdd08195e1a5cdd60521b604082015260600190565b60008351611cc68184602088016118e9565b835190830190611cda8183602088016118e9565b01949350505050565b634e487b7160e01b600052601160045260246000fd5b808202811582820484141761046957610469611ce3565b600082611d2d57634e487b7160e01b600052601260045260246000fd5b500490565b8181038181111561046957610469611ce3565b60208082526025908201527f4552433732313a207472616e736665722066726f6d20696e636f72726563742060408201526437bbb732b960d91b606082015260800190565b601f82111561063d57600081815260208120601f850160051c81016020861015611db15750805b601f850160051c820191505b81811015611dd057828155600101611dbd565b505050505050565b815167ffffffffffffffff811115611df257611df2611a09565b611e0681611e008454611bfd565b84611d8a565b602080601f831160018114611e3b5760008415611e235750858301515b600019600386901b1c1916600185901b178555611dd0565b600085815260208120601f198616915b82811015611e6a57888601518255948401946001909101908401611e4b565b5085821015611e885787850151600019600388901b60f8161c191681555b5050505050600190811b01905550565b60208082526032908201527f4552433732313a207472616e7366657220746f206e6f6e20455243373231526560408201527131b2b4bb32b91034b6b83632b6b2b73a32b960711b606082015260800190565b6001600160a01b0385811682528416602082015260408101839052608060608201819052600090611f1d9083018461190d565b9695505050505050565b600060208284031215611f3957600080fd5b81516108af816118b656fea2646970667358221220401a112807f3268cd1bbada271d47e3db67c5c2d3f72f62ae184512d6dabdf1b64736f6c63430008130033",
  "linkReferences": {},
  "deployedLinkReferences": {}
}