{
  "_format": "hh-sol-artifact-1",
  "contractName": "ChainlinkIntegration",
  "sourceName": "contracts/ChainlinkIntegration.sol",
  "abi": [
    {
      "inputs": [
        {
          "internalType": "address",
          "name": "_priceFeed",
          "type": "address"
        },
        {
          "internalType": "address",
          "name": "_vrfCoordinator",
          "type": "address"
        },
        {
          "internalType": "address",
          "name": "_link",
          "type": "address"
        },
        {
          "internalType": "bytes32",
          "name": "_keyHash",
          "type": "bytes32"
        },
        {
          "internalType": "uint256",
          "name": "_fee",
          "type": "uint256"
        }
      ],
      "stateMutability": "nonpayable",
      "type": "constructor"
    },
    {
      "anonymous": false,
      "inputs": [
        {
          "indexed": true,
          "internalType": "address",
          "name": "previousOwner",
          "type": "address"
        },
        {
          "indexed": true,
          "internalType": "address",
          "name": "newOwner",
          "type": "address"
        }
      ],
      "name": "OwnershipTransferred",
      "type": "event"
    },
    {
      "anonymous": false,
      "inputs": [
        {
          "indexed": true,
          "internalType": "bytes32",
          "name": "requestId",
          "type": "bytes32"
        },
        {
          "indexed": false,
          "internalType": "uint256",
          "name": "randomness",
          "type": "uint256"
        }
      ],
      "name": "ReceivedRandomness",
      "type": "event"
    },
    {
      "anonymous": false,
      "inputs": [
        {
          "indexed": true,
          "internalType": "bytes32",
          "name": "requestId",
          "type": "bytes32"
        }
      ],
      "name": "RequestedRandomness",
      "type": "event"
    },
    {
      "inputs": [],
      "name": "getLatestPrice",
      "outputs": [
        {
          "internalType": "int256",
          "name": "",
          "type": "int256"
        }
      ],
      "stateMutability": "view",
      "type": "function"
    },
    {
      "inputs": [],
      "name": "owner",
      "outputs": [
        {
          "internalType": "address",
          "name": "",
          "type": "address"
        }
      ],
      "stateMutability": "view",
      "type": "function"
    },
    {
      "inputs": [],
      "name": "randomResult",
      "outputs": [
        {
          "internalType": "uint256",
          "name": "",
          "type": "uint256"
        }
      ],
      "stateMutability": "view",
      "type": "function"
    },
    {
      "inputs": [
        {
          "internalType": "bytes32",
          "name": "requestId",
          "type": "bytes32"
        },
        {
          "internalType": "uint256",
          "name": "randomness",
          "type": "uint256"
        }
      ],
      "name": "rawFulfillRandomness",
      "outputs": [],
      "stateMutability": "nonpayable",
      "type": "function"
    },
    {
      "inputs": [],
      "name": "renounceOwnership",
      "outputs": [],
      "stateMutability": "nonpayable",
      "type": "function"
    },
    {
      "inputs": [
        {
          "internalType": "bytes32",
          "name": "",
          "type": "bytes32"
        }
      ],
      "name": "requestIdToSender",
      "outputs": [
        {
          "internalType": "address",
          "name": "",
          "type": "address"
        }
      ],
      "stateMutability": "view",
      "type": "function"
    },
    {
      "inputs": [],
      "name": "requestRandomness",
      "outputs": [
        {
          "internalType": "bytes32",
          "name": "requestId",
          "type": "bytes32"
        }
      ],
      "stateMutability": "nonpayable",
      "type": "function"
    },
    {
      "inputs": [
        {
          "internalType": "uint256",
          "name": "_fee",
          "type": "uint256"
        }
      ],
      "name": "setFee",
      "outputs": [],
      "stateMutability": "nonpayable",
      "type": "function"
    },
    {
      "inputs": [
        {
          "internalType": "bytes32",
          "name": "_keyHash",
          "type": "bytes32"
        }
      ],
      "name": "setKeyHash",
      "outputs": [],
      "stateMutability": "nonpayable",
      "type": "function"
    },
    {
      "inputs": [
        {
          "internalType": "address",
          "name": "newOwner",
          "type": "address"
        }
      ],
      "name": "transferOwnership",
      "outputs": [],
      "stateMutability": "nonpayable",
      "type": "function"
    },
    {
      "inputs": [],
      "name": "withdrawLink",
      "outputs": [],
      "stateMutability": "nonpayable",
      "type": "function"
    }
  ],
  "bytecode": "0x60c060405234801561001057600080fd5b50604051610b6a380380610b6a83398101604081905261002f916100e7565b6001600160a01b0384811660a052831660805261004b33610079565b600280546001600160a01b0319166001600160a01b039690961695909517909455600355505060045561013d565b600180546001600160a01b038381166001600160a01b0319831681179093556040519116919082907f8be0079c531659141344cd1fd0a4f28419497f9722a3daafe3b4186f6b6457e090600090a35050565b80516001600160a01b03811681146100e257600080fd5b919050565b600080600080600060a086880312156100ff57600080fd5b610108866100cb565b9450610116602087016100cb565b9350610124604087016100cb565b6060870151608090970151959894975095949392505050565b60805160a0516109ec61017e6000396000818161038801526106d30152600081816101b501528181610209015281816104a901526106a401526109ec6000f3fe608060405234801561001057600080fd5b50600436106100a95760003560e01c80638dc654a2116100715780638dc654a2146101395780638e15f4731461014157806394985ddd14610149578063985447101461015c578063f2fde38b1461016f578063f8413b071461018257600080fd5b8063219c0eee146100ae57806342619f66146100f457806369fe0e2d1461010b578063715018a6146101205780638da5cb5b14610128575b600080fd5b6100d76100bc36600461081b565b6006602052600090815260409020546001600160a01b031681565b6040516001600160a01b0390911681526020015b60405180910390f35b6100fd60055481565b6040519081526020016100eb565b61011e61011936600461081b565b61018a565b005b61011e610197565b6001546001600160a01b03166100d7565b61011e6101ab565b6100fd6102ee565b61011e610157366004610834565b61037d565b61011e61016a36600461081b565b610408565b61011e61017d366004610856565b610415565b6100fd61048b565b6101926105b6565b600455565b61019f6105b6565b6101a96000610610565b565b6101b36105b6565b7f00000000000000000000000000000000000000000000000000000000000000006001600160a01b031663a9059cbb6101f46001546001600160a01b031690565b6040516370a0823160e01b81523060048201527f00000000000000000000000000000000000000000000000000000000000000006001600160a01b0316906370a0823190602401602060405180830381865afa158015610258573d6000803e3d6000fd5b505050506040513d601f19601f8201168201806040525081019061027c9190610886565b6040516001600160e01b031960e085901b1681526001600160a01b03909216600483015260248201526044016020604051808303816000875af11580156102c7573d6000803e3d6000fd5b505050506040513d601f19601f820116820180604052508101906102eb919061089f565b50565b600080600080600080600260009054906101000a90046001600160a01b03166001600160a01b031663feaf968c6040518163ffffffff1660e01b815260040160a060405180830381865afa15801561034a573d6000803e3d6000fd5b505050506040513d601f19601f8201168201806040525081019061036e91906108e0565b50919998505050505050505050565b336001600160a01b037f000000000000000000000000000000000000000000000000000000000000000016146103fa5760405162461bcd60e51b815260206004820152601f60248201527f4f6e6c7920565246436f6f7264696e61746f722063616e2066756c66696c6c0060448201526064015b60405180910390fd5b6104048282610662565b5050565b6104106105b6565b600355565b61041d6105b6565b6001600160a01b0381166104825760405162461bcd60e51b815260206004820152602660248201527f4f776e61626c653a206e6577206f776e657220697320746865207a65726f206160448201526564647265737360d01b60648201526084016103f1565b6102eb81610610565b600480546040516370a0823160e01b815230928101929092526000917f00000000000000000000000000000000000000000000000000000000000000006001600160a01b0316906370a0823190602401602060405180830381865afa1580156104f8573d6000803e3d6000fd5b505050506040513d601f19601f8201168201806040525081019061051c9190610886565b101561055c5760405162461bcd60e51b815260206004820152600f60248201526e4e6f7420656e6f756768204c494e4b60881b60448201526064016103f1565b61056a6003546004546106a0565b60008181526006602052604080822080546001600160a01b031916331790555191925082917fe5f5b44d72d4143c278eb745c4acc0695c4a5bc616be5beecf46abe29661780e9190a290565b6001546001600160a01b031633146101a95760405162461bcd60e51b815260206004820181905260248201527f4f776e61626c653a2063616c6c6572206973206e6f7420746865206f776e657260448201526064016103f1565b600180546001600160a01b038381166001600160a01b0319831681179093556040519116919082907f8be0079c531659141344cd1fd0a4f28419497f9722a3daafe3b4186f6b6457e090600090a35050565b600581905560405181815282907fa3520b10364c1de605532ce242aca686269c5b9e3995a055dd1559ffd075c53d9060200160405180910390a25050565b60007f00000000000000000000000000000000000000000000000000000000000000006001600160a01b0316634000aea07f000000000000000000000000000000000000000000000000000000000000000084866000604051602001610710929190918252602082015260400190565b6040516020818303038152906040526040518463ffffffff1660e01b815260040161073d93929190610930565b6020604051808303816000875af115801561075c573d6000803e3d6000fd5b505050506040513d601f19601f82011682018060405250810190610780919061089f565b5060008381526020818152604080832054815180840188905280830185905230606082015260808082018390528351808303909101815260a0909101909252815191830191909120868452929091526107da906001610995565b600085815260208181526040918290209290925580518083018790528082019390935280518084038201815260609093019052815191012090505b92915050565b60006020828403121561082d57600080fd5b5035919050565b6000806040838503121561084757600080fd5b50508035926020909101359150565b60006020828403121561086857600080fd5b81356001600160a01b038116811461087f57600080fd5b9392505050565b60006020828403121561089857600080fd5b5051919050565b6000602082840312156108b157600080fd5b8151801515811461087f57600080fd5b805169ffffffffffffffffffff811681146108db57600080fd5b919050565b600080600080600060a086880312156108f857600080fd5b610901866108c1565b9450602086015193506040860151925060608601519150610924608087016108c1565b90509295509295909350565b60018060a01b038416815260006020848184015260606040840152835180606085015260005b8181101561097257858101830151858201608001528201610956565b506000608082860101526080601f19601f83011685010192505050949350505050565b8082018082111561081557634e487b7160e01b600052601160045260246000fdfea2646970667358221220200a97f5d6ef0a500d8758393b96801ed80445bef74867e7ed48f33f20765e3164736f6c63430008130033",
  "linkReferences": {},
  "deployedLinkReferences": {}
}