{
  "_format": "hh-sol-artifact-1",
  "contractName": "CorePlatform",
  "sourceName": "contracts/CorePlatform.sol",
  "abi": [
    {
      "inputs": [
        {
          "internalType": "address",
          "name": "_artistProfile",
          "type": "address"
        },
        {
          "internalType": "address",
          "name": "_artwork",
          "type": "address"
        },
        {
          "internalType": "address",
          "name": "_marketplace",
          "type": "address"
        },
        {
          "internalType": "address payable",
          "name": "_governance",
          "type": "address"
        },
        {
          "internalType": "address",
          "name": "_staking",
          "type": "address"
        },
        {
          "internalType": "address",
          "name": "_liquidityPool",
          "type": "address"
        },
        {
          "internalType": "address",
          "name": "_artLoan",
          "type": "address"
        },
        {
          "internalType": "address",
          "name": "_tokenDistribution",
          "type": "address"
        },
        {
          "internalType": "address",
          "name": "_chainlinkIntegration",
          "type": "address"
        },
        {
          "internalType": "address",
          "name": "_socialInteractions",
          "type": "address"
        }
      ],
      "stateMutability": "nonpayable",
      "type": "constructor"
    },
    {
      "anonymous": false,
      "inputs": [
        {
          "indexed": false,
          "internalType": "string",
          "name": "contractName",
          "type": "string"
        },
        {
          "indexed": false,
          "internalType": "address",
          "name": "newAddress",
          "type": "address"
        }
      ],
      "name": "ContractUpdated",
      "type": "event"
    },
    {
      "anonymous": false,
      "inputs": [
        {
          "indexed": true,
          "internalType": "address",
          "name": "previousOwner",
          "type": "address"
        },
        {
          "indexed": true,
          "internalType": "address",
          "name": "newOwner",
          "type": "address"
        }
      ],
      "name": "OwnershipTransferred",
      "type": "event"
    },
    {
      "anonymous": false,
      "inputs": [
        {
          "indexed": false,
          "internalType": "address",
          "name": "account",
          "type": "address"
        }
      ],
      "name": "Paused",
      "type": "event"
    },
    {
      "anonymous": false,
      "inputs": [
        {
          "indexed": false,
          "internalType": "address",
          "name": "account",
          "type": "address"
        }
      ],
      "name": "Unpaused",
      "type": "event"
    },
    {
      "inputs": [],
      "name": "artLoan",
      "outputs": [
        {
          "internalType": "contract ArtLoan",
          "name": "",
          "type": "address"
        }
      ],
      "stateMutability": "view",
      "type": "function"
    },
    {
      "inputs": [],
      "name": "artistProfile",
      "outputs": [
        {
          "internalType": "contract ArtistProfile",
          "name": "",
          "type": "address"
        }
      ],
      "stateMutability": "view",
      "type": "function"
    },
    {
      "inputs": [],
      "name": "artwork",
      "outputs": [
        {
          "internalType": "contract Artwork",
          "name": "",
          "type": "address"
        }
      ],
      "stateMutability": "view",
      "type": "function"
    },
    {
      "inputs": [],
      "name": "chainlinkIntegration",
      "outputs": [
        {
          "internalType": "contract ChainlinkIntegration",
          "name": "",
          "type": "address"
        }
      ],
      "stateMutability": "view",
      "type": "function"
    },
    {
      "inputs": [],
      "name": "governance",
      "outputs": [
        {
          "internalType": "contract Governance",
          "name": "",
          "type": "address"
        }
      ],
      "stateMutability": "view",
      "type": "function"
    },
    {
      "inputs": [],
      "name": "liquidityPool",
      "outputs": [
        {
          "internalType": "contract LiquidityPool",
          "name": "",
          "type": "address"
        }
      ],
      "stateMutability": "view",
      "type": "function"
    },
    {
      "inputs": [],
      "name": "marketplace",
      "outputs": [
        {
          "internalType": "contract Marketplace",
          "name": "",
          "type": "address"
        }
      ],
      "stateMutability": "view",
      "type": "function"
    },
    {
      "inputs": [],
      "name": "owner",
      "outputs": [
        {
          "internalType": "address",
          "name": "",
          "type": "address"
        }
      ],
      "stateMutability": "view",
      "type": "function"
    },
    {
      "inputs": [],
      "name": "pause",
      "outputs": [],
      "stateMutability": "nonpayable",
      "type": "function"
    },
    {
      "inputs": [],
      "name": "paused",
      "outputs": [
        {
          "internalType": "bool",
          "name": "",
          "type": "bool"
        }
      ],
      "stateMutability": "view",
      "type": "function"
    },
    {
      "inputs": [],
      "name": "renounceOwnership",
      "outputs": [],
      "stateMutability": "nonpayable",
      "type": "function"
    },
    {
      "inputs": [],
      "name": "socialInteractions",
      "outputs": [
        {
          "internalType": "contract SocialInteractions",
          "name": "",
          "type": "address"
        }
      ],
      "stateMutability": "view",
      "type": "function"
    },
    {
      "inputs": [],
      "name": "staking",
      "outputs": [
        {
          "internalType": "contract Staking",
          "name": "",
          "type": "address"
        }
      ],
      "stateMutability": "view",
      "type": "function"
    },
    {
      "inputs": [],
      "name": "tokenDistribution",
      "outputs": [
        {
          "internalType": "contract TokenDistribution",
          "name": "",
          "type": "address"
        }
      ],
      "stateMutability": "view",
      "type": "function"
    },
    {
      "inputs": [
        {
          "internalType": "address",
          "name": "newOwner",
          "type": "address"
        }
      ],
      "name": "transferOwnership",
      "outputs": [],
      "stateMutability": "nonpayable",
      "type": "function"
    },
    {
      "inputs": [],
      "name": "unpause",
      "outputs": [],
      "stateMutability": "nonpayable",
      "type": "function"
    },
    {
      "inputs": [
        {
          "internalType": "address",
          "name": "_newAddress",
          "type": "address"
        }
      ],
      "name": "updateArtLoan",
      "outputs": [],
      "stateMutability": "nonpayable",
      "type": "function"
    },
    {
      "inputs": [
        {
          "internalType": "address",
          "name": "_newAddress",
          "type": "address"
        }
      ],
      "name": "updateArtistProfile",
      "outputs": [],
      "stateMutability": "nonpayable",
      "type": "function"
    },
    {
      "inputs": [
        {
          "internalType": "address",
          "name": "_newAddress",
          "type": "address"
        }
      ],
      "name": "updateArtwork",
      "outputs": [],
      "stateMutability": "nonpayable",
      "type": "function"
    },
    {
      "inputs": [
        {
          "internalType": "address",
          "name": "_newAddress",
          "type": "address"
        }
      ],
      "name": "updateChainlinkIntegration",
      "outputs": [],
      "stateMutability": "nonpayable",
      "type": "function"
    },
    {
      "inputs": [
        {
          "internalType": "address payable",
          "name": "_newAddress",
          "type": "address"
        }
      ],
      "name": "updateGovernance",
      "outputs": [],
      "stateMutability": "nonpayable",
      "type": "function"
    },
    {
      "inputs": [
        {
          "internalType": "address",
          "name": "_newAddress",
          "type": "address"
        }
      ],
      "name": "updateLiquidityPool",
      "outputs": [],
      "stateMutability": "nonpayable",
      "type": "function"
    },
    {
      "inputs": [
        {
          "internalType": "address",
          "name": "_newAddress",
          "type": "address"
        }
      ],
      "name": "updateMarketplace",
      "outputs": [],
      "stateMutability": "nonpayable",
      "type": "function"
    },
    {
      "inputs": [
        {
          "internalType": "address",
          "name": "_newAddress",
          "type": "address"
        }
      ],
      "name": "updateStaking",
      "outputs": [],
      "stateMutability": "nonpayable",
      "type": "function"
    },
    {
      "inputs": [
        {
          "internalType": "address",
          "name": "_newAddress",
          "type": "address"
        }
      ],
      "name": "updateTokenDistribution",
      "outputs": [],
      "stateMutability": "nonpayable",
      "type": "function"
    }
  ],
  "bytecode": "0x60806040523480156200001157600080fd5b5060405162000c9e38038062000c9e833981016040819052620000349162000166565b6200003f33620000fd565b6000805460ff60a01b19169055600180546001600160a01b03199081166001600160a01b039c8d16179091556002805482169a8c169a909a17909955600380548a16988b1698909817909755600480548916968a16969096179095556005805488169489169490941790935560068054871692881692909217909155600780548616918716919091179055600880548516918616919091179055600980548416918516919091179055600a8054909216921691909117905562000254565b600080546001600160a01b038381166001600160a01b0319831681178455604051919092169283917f8be0079c531659141344cd1fd0a4f28419497f9722a3daafe3b4186f6b6457e09190a35050565b6001600160a01b03811681146200016357600080fd5b50565b6000806000806000806000806000806101408b8d0312156200018757600080fd5b8a5162000194816200014d565b60208c0151909a50620001a7816200014d565b60408c0151909950620001ba816200014d565b60608c0151909850620001cd816200014d565b60808c0151909750620001e0816200014d565b60a08c0151909650620001f3816200014d565b60c08c015190955062000206816200014d565b60e08c015190945062000219816200014d565b6101008c01519093506200022d816200014d565b6101208c015190925062000241816200014d565b809150509295989b9194979a5092959850565b610a3a80620002646000396000f3fe608060405234801561001057600080fd5b50600436106101735760003560e01c80638456cb59116100de578063b61db52911610097578063eb63631711610071578063eb6363171461030d578063f2fde38b14610320578063f79940b914610333578063fc8c937b1461034657600080fd5b8063b61db529146102d4578063cc253500146102e7578063dd3cdf6c146102fa57600080fd5b80638456cb591461026f5780638da5cb5b14610277578063a345f38d14610288578063abc8c7af1461029b578063abcb5634146102ae578063b2561263146102c157600080fd5b80635aa6e675116101305780635aa6e675146101fe5780635c975abb14610211578063665a11ca1461022e578063674bb43c14610241578063715018a6146102545780637c45391d1461025c57600080fd5b806308a6077c1461017857806326cc133e146101a857806332c0a3d9146101bb5780633f4ba83a146101d05780634cf088d9146101d8578063529ff96a146101eb575b600080fd5b60085461018b906001600160a01b031681565b6040516001600160a01b0390911681526020015b60405180910390f35b60025461018b906001600160a01b031681565b6101ce6101c93660046109c0565b610359565b005b6101ce6103cc565b60055461018b906001600160a01b031681565b60075461018b906001600160a01b031681565b60045461018b906001600160a01b031681565b600054600160a01b900460ff16604051901515815260200161019f565b60065461018b906001600160a01b031681565b6101ce61024f3660046109c0565b6103de565b6101ce61043e565b6101ce61026a3660046109c0565b610450565b6101ce6104c3565b6000546001600160a01b031661018b565b6101ce6102963660046109c0565b6104d3565b60035461018b906001600160a01b031681565b60095461018b906001600160a01b031681565b6101ce6102cf3660046109c0565b610539565b6101ce6102e23660046109c0565b6105a2565b600a5461018b906001600160a01b031681565b6101ce6103083660046109c0565b610608565b6101ce61031b3660046109c0565b610674565b6101ce61032e3660046109c0565b6106de565b6101ce6103413660046109c0565b61075c565b60015461018b906001600160a01b031681565b6103616107cc565b600180546001600160a01b0319166001600160a01b03831690811790915560408051818152600d918101919091526c41727469737450726f66696c6560981b606082015260208101919091526000805160206109e5833981519152906080015b60405180910390a150565b6103d46107cc565b6103dc610826565b565b6103e66107cc565b600780546001600160a01b0319166001600160a01b038316908117825560408051818152908101929092526620b93a2637b0b760c91b606083015260208201526000805160206109e5833981519152906080016103c1565b6104466107cc565b6103dc600061087b565b6104586107cc565b600980546001600160a01b0319166001600160a01b038316908117909155604080518181526014918101919091527321b430b4b73634b735a4b73a32b3b930ba34b7b760611b606082015260208101919091526000805160206109e5833981519152906080016103c1565b6104cb6107cc565b6103dc6108cb565b6104db6107cc565b600580546001600160a01b0319166001600160a01b03831690811790915560408051818152600791810191909152665374616b696e6760c81b606082015260208101919091526000805160206109e5833981519152906080016103c1565b6105416107cc565b600480546001600160a01b0319166001600160a01b03831690811790915560408051818152600a9181019190915269476f7665726e616e636560b01b606082015260208101919091526000805160206109e5833981519152906080016103c1565b6105aa6107cc565b600280546001600160a01b0319166001600160a01b0383169081179091556040805181815260079181019190915266417274776f726b60c81b606082015260208101919091526000805160206109e5833981519152906080016103c1565b6106106107cc565b600680546001600160a01b0319166001600160a01b03831690811790915560408051818152600d918101919091526c131a5c5d5a591a5d1e541bdbdb609a1b606082015260208101919091526000805160206109e5833981519152906080016103c1565b61067c6107cc565b600380546001600160a01b0319166001600160a01b03831690811790915560408051818152600b918101919091526a4d61726b6574706c61636560a81b606082015260208101919091526000805160206109e5833981519152906080016103c1565b6106e66107cc565b6001600160a01b0381166107505760405162461bcd60e51b815260206004820152602660248201527f4f776e61626c653a206e6577206f776e657220697320746865207a65726f206160448201526564647265737360d01b60648201526084015b60405180910390fd5b6107598161087b565b50565b6107646107cc565b600880546001600160a01b0319166001600160a01b03831690811790915560408051818152601191810191909152702a37b5b2b72234b9ba3934b13aba34b7b760791b606082015260208101919091526000805160206109e5833981519152906080016103c1565b6000546001600160a01b031633146103dc5760405162461bcd60e51b815260206004820181905260248201527f4f776e61626c653a2063616c6c6572206973206e6f7420746865206f776e65726044820152606401610747565b61082e61090e565b6000805460ff60a01b191690557f5db9ee0a495bf2e6ff9c91a7834c1ba4fdd244a5e8aa4e537bd38aeae4b073aa335b6040516001600160a01b03909116815260200160405180910390a1565b600080546001600160a01b038381166001600160a01b0319831681178455604051919092169283917f8be0079c531659141344cd1fd0a4f28419497f9722a3daafe3b4186f6b6457e09190a35050565b6108d361095e565b6000805460ff60a01b1916600160a01b1790557f62e78cea01bee320cd4e420270b5ea74000d11b0c9f74754ebdbfc544b05a25861085e3390565b600054600160a01b900460ff166103dc5760405162461bcd60e51b815260206004820152601460248201527314185d5cd8589b194e881b9bdd081c185d5cd95960621b6044820152606401610747565b600054600160a01b900460ff16156103dc5760405162461bcd60e51b815260206004820152601060248201526f14185d5cd8589b194e881c185d5cd95960821b6044820152606401610747565b6001600160a01b038116811461075957600080fd5b6000602082840312156109d257600080fd5b81356109dd816109ab565b939250505056fef611fec7babefd259c57ea5b6006acff8140ab17bb816c65ba0aa7e36c09caa8a2646970667358221220546cbd1132dc8f842868df8fe238b1ac92aca331c0420c0c0e0dffd6997187db64736f6c63430008130033",
  "linkReferences": {},
  "deployedLinkReferences": {}
}