{
  "_format": "hh-sol-artifact-1",
  "contractName": "LiquidityPool",
  "sourceName": "contracts/LiquidityPool.sol",
  "abi": [
    {
      "inputs": [
        {
          "internalType": "address",
          "name": "_coreToken",
          "type": "address"
        },
        {
          "internalType": "address",
          "name": "_artToken",
          "type": "address"
        }
      ],
      "stateMutability": "nonpayable",
      "type": "constructor"
    },
    {
      "anonymous": false,
      "inputs": [
        {
          "indexed": true,
          "internalType": "address",
          "name": "user",
          "type": "address"
        },
        {
          "indexed": false,
          "internalType": "uint256",
          "name": "coreAmount",
          "type": "uint256"
        },
        {
          "indexed": false,
          "internalType": "uint256",
          "name": "artAmount",
          "type": "uint256"
        }
      ],
      "name": "LiquidityAdded",
      "type": "event"
    },
    {
      "anonymous": false,
      "inputs": [
        {
          "indexed": true,
          "internalType": "address",
          "name": "user",
          "type": "address"
        },
        {
          "indexed": false,
          "internalType": "uint256",
          "name": "coreAmount",
          "type": "uint256"
        },
        {
          "indexed": false,
          "internalType": "uint256",
          "name": "artAmount",
          "type": "uint256"
        }
      ],
      "name": "LiquidityRemoved",
      "type": "event"
    },
    {
      "anonymous": false,
      "inputs": [
        {
          "indexed": true,
          "internalType": "address",
          "name": "previousOwner",
          "type": "address"
        },
        {
          "indexed": true,
          "internalType": "address",
          "name": "newOwner",
          "type": "address"
        }
      ],
      "name": "OwnershipTransferred",
      "type": "event"
    },
    {
      "anonymous": false,
      "inputs": [
        {
          "indexed": true,
          "internalType": "address",
          "name": "user",
          "type": "address"
        },
        {
          "indexed": true,
          "internalType": "address",
          "name": "tokenIn",
          "type": "address"
        },
        {
          "indexed": true,
          "internalType": "address",
          "name": "tokenOut",
          "type": "address"
        },
        {
          "indexed": false,
          "internalType": "uint256",
          "name": "amountIn",
          "type": "uint256"
        },
        {
          "indexed": false,
          "internalType": "uint256",
          "name": "amountOut",
          "type": "uint256"
        }
      ],
      "name": "Swapped",
      "type": "event"
    },
    {
      "inputs": [
        {
          "internalType": "uint256",
          "name": "_coreAmount",
          "type": "uint256"
        },
        {
          "internalType": "uint256",
          "name": "_artAmount",
          "type": "uint256"
        }
      ],
      "name": "addLiquidity",
      "outputs": [],
      "stateMutability": "nonpayable",
      "type": "function"
    },
    {
      "inputs": [],
      "name": "artToken",
      "outputs": [
        {
          "internalType": "contract IERC20",
          "name": "",
          "type": "address"
        }
      ],
      "stateMutability": "view",
      "type": "function"
    },
    {
      "inputs": [],
      "name": "coreToken",
      "outputs": [
        {
          "internalType": "contract IERC20",
          "name": "",
          "type": "address"
        }
      ],
      "stateMutability": "view",
      "type": "function"
    },
    {
      "inputs": [
        {
          "internalType": "uint256",
          "name": "_amountIn",
          "type": "uint256"
        },
        {
          "internalType": "uint256",
          "name": "_reserveIn",
          "type": "uint256"
        },
        {
          "internalType": "uint256",
          "name": "_reserveOut",
          "type": "uint256"
        }
      ],
      "name": "getAmountOut",
      "outputs": [
        {
          "internalType": "uint256",
          "name": "",
          "type": "uint256"
        }
      ],
      "stateMutability": "pure",
      "type": "function"
    },
    {
      "inputs": [],
      "name": "owner",
      "outputs": [
        {
          "internalType": "address",
          "name": "",
          "type": "address"
        }
      ],
      "stateMutability": "view",
      "type": "function"
    },
    {
      "inputs": [
        {
          "internalType": "uint256",
          "name": "_liquidity",
          "type": "uint256"
        }
      ],
      "name": "removeLiquidity",
      "outputs": [],
      "stateMutability": "nonpayable",
      "type": "function"
    },
    {
      "inputs": [],
      "name": "renounceOwnership",
      "outputs": [],
      "stateMutability": "nonpayable",
      "type": "function"
    },
    {
      "inputs": [
        {
          "internalType": "address",
          "name": "_tokenIn",
          "type": "address"
        },
        {
          "internalType": "uint256",
          "name": "_amountIn",
          "type": "uint256"
        }
      ],
      "name": "swap",
      "outputs": [],
      "stateMutability": "nonpayable",
      "type": "function"
    },
    {
      "inputs": [],
      "name": "totalLiquidity",
      "outputs": [
        {
          "internalType": "uint256",
          "name": "",
          "type": "uint256"
        }
      ],
      "stateMutability": "view",
      "type": "function"
    },
    {
      "inputs": [
        {
          "internalType": "address",
          "name": "newOwner",
          "type": "address"
        }
      ],
      "name": "transferOwnership",
      "outputs": [],
      "stateMutability": "nonpayable",
      "type": "function"
    },
    {
      "inputs": [
        {
          "internalType": "address",
          "name": "",
          "type": "address"
        }
      ],
      "name": "userLiquidity",
      "outputs": [
        {
          "internalType": "uint256",
          "name": "",
          "type": "uint256"
        }
      ],
      "stateMutability": "view",
      "type": "function"
    }
  ],
  "bytecode": "0x608060405234801561001057600080fd5b5060405161121038038061121083398101604081905261002f916100dc565b600160005561003d3361006e565b600280546001600160a01b039384166001600160a01b0319918216179091556003805492909316911617905561010f565b600180546001600160a01b038381166001600160a01b0319831681179093556040519116919082907f8be0079c531659141344cd1fd0a4f28419497f9722a3daafe3b4186f6b6457e090600090a35050565b80516001600160a01b03811681146100d757600080fd5b919050565b600080604083850312156100ef57600080fd5b6100f8836100c0565b9150610106602084016100c0565b90509250929050565b6110f28061011e6000396000f3fe608060405234801561001057600080fd5b50600436106100a95760003560e01c80639c8f9f23116100715780639c8f9f23146101235780639cd441da14610136578063ba4c28c314610149578063bd4cc0f514610169578063d004f0f71461017c578063f2fde38b1461018f57600080fd5b8063054d50d4146100ae5780630c2b72e9146100d457806315770f92146100ff578063715018a6146101085780638da5cb5b14610112575b600080fd5b6100c16100bc366004610ecf565b6101a2565b6040519081526020015b60405180910390f35b6002546100e7906001600160a01b031681565b6040516001600160a01b0390911681526020016100cb565b6100c160045481565b61011061029a565b005b6001546001600160a01b03166100e7565b610110610131366004610efb565b6102ae565b610110610144366004610f14565b6104f0565b6100c1610157366004610f4d565b60056020526000908152604090205481565b6003546100e7906001600160a01b031681565b61011061018a366004610f68565b610741565b61011061019d366004610f4d565b6109a6565b60008084116101f85760405162461bcd60e51b815260206004820152601960248201527f496e73756666696369656e7420696e70757420616d6f756e740000000000000060448201526064015b60405180910390fd5b6000831180156102085750600082115b61024d5760405162461bcd60e51b8152602060048201526016602482015275496e73756666696369656e74206c697175696469747960501b60448201526064016101ef565b600061025b856103e5610a1c565b905060006102698285610a1c565b905060006102838361027d886103e8610a1c565b90610a31565b905061028f8183610fa8565b979650505050505050565b6102a2610a3d565b6102ac6000610a97565b565b6102b6610ae9565b6000811180156102d55750336000908152600560205260409020548111155b6103215760405162461bcd60e51b815260206004820152601860248201527f496e76616c6964206c697175696469747920616d6f756e74000000000000000060448201526064016101ef565b600480546002546040516370a0823160e01b8152309381019390935260009261039f916001600160a01b0316906370a0823190602401602060405180830381865afa158015610374573d6000803e3d6000fd5b505050506040513d601f19601f820116820180604052508101906103989190610fca565b8490610a1c565b6103a99190610fa8565b600480546003546040516370a0823160e01b81523093810193909352929350600092909161042c916001600160a01b0316906370a0823190602401602060405180830381865afa158015610401573d6000803e3d6000fd5b505050506040513d601f19601f820116820180604052508101906104259190610fca565b8590610a1c565b6104369190610fa8565b6004549091506104469084610b42565b600455336000908152600560205260409020546104639084610b42565b3360008181526005602052604090209190915560025461048f916001600160a01b039091169084610b4e565b6003546104a6906001600160a01b03163383610b4e565b604080518381526020810183905233917f96cd817c6329656790ef8fba7675405193677d39619571282f5e21f3a98cd059910160405180910390a250506104ed6001600055565b50565b6104f8610ae9565b6000821180156105085750600081115b6105545760405162461bcd60e51b815260206004820152601e60248201527f416d6f756e7473206d7573742062652067726561746572207468616e2030000060448201526064016101ef565b60025461056c906001600160a01b0316333085610bb6565b600354610584906001600160a01b0316333084610bb6565b60006004546000146106a4576002546040516370a0823160e01b815230600482015261069f916001600160a01b0316906370a0823190602401602060405180830381865afa1580156105da573d6000803e3d6000fd5b505050506040513d601f19601f820116820180604052508101906105fe9190610fca565b60045461060c908690610a1c565b6106169190610fa8565b6003546040516370a0823160e01b81523060048201526001600160a01b03909116906370a0823190602401602060405180830381865afa15801561065e573d6000803e3d6000fd5b505050506040513d601f19601f820116820180604052508101906106829190610fca565b600454610690908690610a1c565b61069a9190610fa8565b610bf4565b6106b6565b6106b66106b18484610a1c565b610c0a565b6004549091506106c69082610a31565b600455336000908152600560205260409020546106e39082610a31565b3360008181526005602090815260409182902093909355805186815292830185905290917fac1d76749e5447b7b16f5ab61447e1bd502f3bb4807af3b28e620d1700a6ee45910160405180910390a25061073d6001600055565b5050565b610749610ae9565b6002546001600160a01b038381169116148061077257506003546001600160a01b038381169116145b6107ae5760405162461bcd60e51b815260206004820152600d60248201526c24b73b30b634b2103a37b5b2b760991b60448201526064016101ef565b600081116107fe5760405162461bcd60e51b815260206004820152601d60248201527f416d6f756e74206d7573742062652067726561746572207468616e203000000060448201526064016101ef565b60025482906000906001600160a01b03808416911614610829576002546001600160a01b0316610836565b6003546001600160a01b03165b6040516370a0823160e01b81523060048201529091506000906001600160a01b038416906370a0823190602401602060405180830381865afa158015610880573d6000803e3d6000fd5b505050506040513d601f19601f820116820180604052508101906108a49190610fca565b6040516370a0823160e01b81523060048201529091506000906001600160a01b038416906370a0823190602401602060405180830381865afa1580156108ee573d6000803e3d6000fd5b505050506040513d601f19601f820116820180604052508101906109129190610fca565b905060006109218684846101a2565b90506109386001600160a01b038616333089610bb6565b61094c6001600160a01b0385163383610b4e565b60408051878152602081018390526001600160a01b0380871692908a169133917f6782190c91d4a7e8ad2a867deed6ec0a970cab8ff137ae2bd4abd92b3810f4d3910160405180910390a4505050505061073d6001600055565b6109ae610a3d565b6001600160a01b038116610a135760405162461bcd60e51b815260206004820152602660248201527f4f776e61626c653a206e6577206f776e657220697320746865207a65726f206160448201526564647265737360d01b60648201526084016101ef565b6104ed81610a97565b6000610a288284610fe3565b90505b92915050565b6000610a288284610ffa565b6001546001600160a01b031633146102ac5760405162461bcd60e51b815260206004820181905260248201527f4f776e61626c653a2063616c6c6572206973206e6f7420746865206f776e657260448201526064016101ef565b600180546001600160a01b038381166001600160a01b0319831681179093556040519116919082907f8be0079c531659141344cd1fd0a4f28419497f9722a3daafe3b4186f6b6457e090600090a35050565b600260005403610b3b5760405162461bcd60e51b815260206004820152601f60248201527f5265656e7472616e637947756172643a207265656e7472616e742063616c6c0060448201526064016101ef565b6002600055565b6000610a28828461100d565b6040516001600160a01b038316602482015260448101829052610bb190849063a9059cbb60e01b906064015b60408051601f198184030181529190526020810180516001600160e01b03166001600160e01b031990931692909217909152610c7a565b505050565b6040516001600160a01b0380851660248301528316604482015260648101829052610bee9085906323b872dd60e01b90608401610b7a565b50505050565b6000818310610c035781610a28565b5090919050565b60006003821115610c6b5750806000610c24600283610fa8565b610c2f906001610ffa565b90505b81811015610c6557905080600281610c4a8186610fa8565b610c549190610ffa565b610c5e9190610fa8565b9050610c32565b50919050565b8115610c75575060015b919050565b6000610ccf826040518060400160405280602081526020017f5361666545524332303a206c6f772d6c6576656c2063616c6c206661696c6564815250856001600160a01b0316610d4f9092919063ffffffff16565b9050805160001480610cf0575080806020019051810190610cf09190611020565b610bb15760405162461bcd60e51b815260206004820152602a60248201527f5361666545524332303a204552433230206f7065726174696f6e20646964206e6044820152691bdd081cdd58d8d9595960b21b60648201526084016101ef565b6060610d5e8484600085610d66565b949350505050565b606082471015610dc75760405162461bcd60e51b815260206004820152602660248201527f416464726573733a20696e73756666696369656e742062616c616e636520666f6044820152651c8818d85b1b60d21b60648201526084016101ef565b600080866001600160a01b03168587604051610de3919061106d565b60006040518083038185875af1925050503d8060008114610e20576040519150601f19603f3d011682016040523d82523d6000602084013e610e25565b606091505b509150915061028f8783838760608315610ea0578251600003610e99576001600160a01b0385163b610e995760405162461bcd60e51b815260206004820152601d60248201527f416464726573733a2063616c6c20746f206e6f6e2d636f6e747261637400000060448201526064016101ef565b5081610d5e565b610d5e8383815115610eb55781518083602001fd5b8060405162461bcd60e51b81526004016101ef9190611089565b600080600060608486031215610ee457600080fd5b505081359360208301359350604090920135919050565b600060208284031215610f0d57600080fd5b5035919050565b60008060408385031215610f2757600080fd5b50508035926020909101359150565b80356001600160a01b0381168114610c7557600080fd5b600060208284031215610f5f57600080fd5b610a2882610f36565b60008060408385031215610f7b57600080fd5b610f8483610f36565b946020939093013593505050565b634e487b7160e01b600052601160045260246000fd5b600082610fc557634e487b7160e01b600052601260045260246000fd5b500490565b600060208284031215610fdc57600080fd5b5051919050565b8082028115828204841417610a2b57610a2b610f92565b80820180821115610a2b57610a2b610f92565b81810381811115610a2b57610a2b610f92565b60006020828403121561103257600080fd5b8151801515811461104257600080fd5b9392505050565b60005b8381101561106457818101518382015260200161104c565b50506000910152565b6000825161107f818460208701611049565b9190910192915050565b60208152600082518060208401526110a8816040850160208701611049565b601f01601f1916919091016040019291505056fea26469706673582212204789e70003c312315526990ae2df88b956f156dd0cc96a901916182656b6023864736f6c63430008130033",
  "linkReferences": {},
  "deployedLinkReferences": {}
}