{
  "_format": "hh-sol-artifact-1",
  "contractName": "Marketplace",
  "sourceName": "contracts/Marketplace.sol",
  "abi": [
    {
      "inputs": [
        {
          "internalType": "address",
          "name": "_coreToken",
          "type": "address"
        },
        {
          "internalType": "uint256",
          "name": "_platformFee",
          "type": "uint256"
        }
      ],
      "stateMutability": "nonpayable",
      "type": "constructor"
    },
    {
      "anonymous": false,
      "inputs": [
        {
          "indexed": true,
          "internalType": "uint256",
          "name": "listingId",
          "type": "uint256"
        },
        {
          "indexed": true,
          "internalType": "address",
          "name": "seller",
          "type": "address"
        },
        {
          "indexed": true,
          "internalType": "address",
          "name": "nftContract",
          "type": "address"
        },
        {
          "indexed": false,
          "internalType": "uint256",
          "name": "tokenId",
          "type": "uint256"
        },
        {
          "indexed": false,
          "internalType": "uint256",
          "name": "price",
          "type": "uint256"
        }
      ],
      "name": "Listed",
      "type": "event"
    },
    {
      "anonymous": false,
      "inputs": [
        {
          "indexed": true,
          "internalType": "uint256",
          "name": "listingId",
          "type": "uint256"
        }
      ],
      "name": "ListingCancelled",
      "type": "event"
    },
    {
      "anonymous": false,
      "inputs": [
        {
          "indexed": true,
          "internalType": "uint256",
          "name": "listingId",
          "type": "uint256"
        },
        {
          "indexed": true,
          "internalType": "address",
          "name": "buyer",
          "type": "address"
        },
        {
          "indexed": false,
          "internalType": "uint256",
          "name": "price",
          "type": "uint256"
        }
      ],
      "name": "OfferAccepted",
      "type": "event"
    },
    {
      "anonymous": false,
      "inputs": [
        {
          "indexed": true,
          "internalType": "uint256",
          "name": "listingId",
          "type": "uint256"
        },
        {
          "indexed": true,
          "internalType": "address",
          "name": "buyer",
          "type": "address"
        },
        {
          "indexed": false,
          "internalType": "uint256",
          "name": "price",
          "type": "uint256"
        }
      ],
      "name": "OfferMade",
      "type": "event"
    },
    {
      "anonymous": false,
      "inputs": [
        {
          "indexed": true,
          "internalType": "address",
          "name": "previousOwner",
          "type": "address"
        },
        {
          "indexed": true,
          "internalType": "address",
          "name": "newOwner",
          "type": "address"
        }
      ],
      "name": "OwnershipTransferred",
      "type": "event"
    },
    {
      "anonymous": false,
      "inputs": [
        {
          "indexed": true,
          "internalType": "uint256",
          "name": "listingId",
          "type": "uint256"
        },
        {
          "indexed": false,
          "internalType": "address",
          "name": "buyer",
          "type": "address"
        },
        {
          "indexed": false,
          "internalType": "uint256",
          "name": "price",
          "type": "uint256"
        }
      ],
      "name": "Sale",
      "type": "event"
    },
    {
      "inputs": [
        {
          "internalType": "uint256",
          "name": "_listingId",
          "type": "uint256"
        },
        {
          "internalType": "uint256",
          "name": "_offerIndex",
          "type": "uint256"
        }
      ],
      "name": "acceptOffer",
      "outputs": [],
      "stateMutability": "nonpayable",
      "type": "function"
    },
    {
      "inputs": [
        {
          "internalType": "uint256",
          "name": "_listingId",
          "type": "uint256"
        }
      ],
      "name": "buyItem",
      "outputs": [],
      "stateMutability": "nonpayable",
      "type": "function"
    },
    {
      "inputs": [
        {
          "internalType": "uint256",
          "name": "_listingId",
          "type": "uint256"
        }
      ],
      "name": "cancelListing",
      "outputs": [],
      "stateMutability": "nonpayable",
      "type": "function"
    },
    {
      "inputs": [],
      "name": "coreToken",
      "outputs": [
        {
          "internalType": "contract IERC20",
          "name": "",
          "type": "address"
        }
      ],
      "stateMutability": "view",
      "type": "function"
    },
    {
      "inputs": [
        {
          "internalType": "address",
          "name": "_nftContract",
          "type": "address"
        },
        {
          "internalType": "uint256",
          "name": "_tokenId",
          "type": "uint256"
        },
        {
          "internalType": "uint256",
          "name": "_price",
          "type": "uint256"
        }
      ],
      "name": "listItem",
      "outputs": [],
      "stateMutability": "nonpayable",
      "type": "function"
    },
    {
      "inputs": [],
      "name": "listingCounter",
      "outputs": [
        {
          "internalType": "uint256",
          "name": "",
          "type": "uint256"
        }
      ],
      "stateMutability": "view",
      "type": "function"
    },
    {
      "inputs": [
        {
          "internalType": "uint256",
          "name": "",
          "type": "uint256"
        }
      ],
      "name": "listings",
      "outputs": [
        {
          "internalType": "address",
          "name": "seller",
          "type": "address"
        },
        {
          "internalType": "address",
          "name": "nftContract",
          "type": "address"
        },
        {
          "internalType": "uint256",
          "name": "tokenId",
          "type": "uint256"
        },
        {
          "internalType": "uint256",
          "name": "price",
          "type": "uint256"
        },
        {
          "internalType": "bool",
          "name": "isActive",
          "type": "bool"
        }
      ],
      "stateMutability": "view",
      "type": "function"
    },
    {
      "inputs": [
        {
          "internalType": "uint256",
          "name": "_listingId",
          "type": "uint256"
        },
        {
          "internalType": "uint256",
          "name": "_offerPrice",
          "type": "uint256"
        }
      ],
      "name": "makeOffer",
      "outputs": [],
      "stateMutability": "nonpayable",
      "type": "function"
    },
    {
      "inputs": [
        {
          "internalType": "uint256",
          "name": "",
          "type": "uint256"
        },
        {
          "internalType": "uint256",
          "name": "",
          "type": "uint256"
        }
      ],
      "name": "offers",
      "outputs": [
        {
          "internalType": "address",
          "name": "buyer",
          "type": "address"
        },
        {
          "internalType": "uint256",
          "name": "price",
          "type": "uint256"
        }
      ],
      "stateMutability": "view",
      "type": "function"
    },
    {
      "inputs": [],
      "name": "owner",
      "outputs": [
        {
          "internalType": "address",
          "name": "",
          "type": "address"
        }
      ],
      "stateMutability": "view",
      "type": "function"
    },
    {
      "inputs": [],
      "name": "platformFee",
      "outputs": [
        {
          "internalType": "uint256",
          "name": "",
          "type": "uint256"
        }
      ],
      "stateMutability": "view",
      "type": "function"
    },
    {
      "inputs": [],
      "name": "renounceOwnership",
      "outputs": [],
      "stateMutability": "nonpayable",
      "type": "function"
    },
    {
      "inputs": [
        {
          "internalType": "address",
          "name": "newOwner",
          "type": "address"
        }
      ],
      "name": "transferOwnership",
      "outputs": [],
      "stateMutability": "nonpayable",
      "type": "function"
    },
    {
      "inputs": [
        {
          "internalType": "uint256",
          "name": "_newFee",
          "type": "uint256"
        }
      ],
      "name": "updatePlatformFee",
      "outputs": [],
      "stateMutability": "nonpayable",
      "type": "function"
    }
  ],
  "bytecode": "0x608060405234801561001057600080fd5b506040516113b53803806113b583398101604081905261002f916100b5565b61003833610065565b60018055600680546001600160a01b0319166001600160a01b0393909316929092179091556005556100ef565b600080546001600160a01b038381166001600160a01b0319831681178455604051919092169283917f8be0079c531659141344cd1fd0a4f28419497f9722a3daafe3b4186f6b6457e09190a35050565b600080604083850312156100c857600080fd5b82516001600160a01b03811681146100df57600080fd5b6020939093015192949293505050565b6112b7806100fe6000396000f3fe608060405234801561001057600080fd5b50600436106100ea5760003560e01c806381257bd51161008c578063aa0b598811610066578063aa0b5988146101d8578063de74e57b146101eb578063e7fb74c71461026d578063f2fde38b1461028057600080fd5b806381257bd5146101a157806389bfd38f146101b45780638da5cb5b146101c757600080fd5b8063305a67a8116100c8578063305a67a81461014b5780634d03a9a51461015e5780636c2c9c7d14610190578063715018a61461019957600080fd5b806305b7cdd3146100ef5780630c2b72e91461010457806326232a2e14610134575b600080fd5b6101026100fd3660046110b2565b610293565b005b600654610117906001600160a01b031681565b6040516001600160a01b0390911681526020015b60405180910390f35b61013d60055481565b60405190815260200161012b565b6101026101593660046110d4565b6103c6565b61017161016c3660046110b2565b61048e565b604080516001600160a01b03909316835260208301919091520161012b565b61013d60045481565b6101026104d4565b6101026101af3660046110b2565b6104e8565b6101026101c2366004611102565b61090c565b6000546001600160a01b0316610117565b6101026101e63660046110d4565b610b76565b6102386101f93660046110d4565b6002602081905260009182526040909120805460018201549282015460038301546004909301546001600160a01b039283169490921692909160ff1685565b604080516001600160a01b0396871681529590941660208601529284019190915260608301521515608082015260a00161012b565b61010261027b3660046110d4565b610bc4565b61010261028e366004611137565b610f39565b61029b610faf565b60008281526002602052604090206004015460ff166102d55760405162461bcd60e51b81526004016102cc9061115b565b60405180910390fd5b600081116103255760405162461bcd60e51b815260206004820152601c60248201527f4f66666572206d7573742062652067726561746572207468616e20300000000060448201526064016102cc565b60008281526003602090815260408083208151808301835233808252818501878152835460018082018655948852968690209251600290970290920180546001600160a01b0319166001600160a01b03909716969096178655905194909101939093555183815284917fbdf1e76c2ba2a5c85b93bf78678a4a3b06d63b18422612dac8d7d5249ed46714910160405180910390a36103c260018055565b5050565b6103ce610faf565b600081815260026020526040902080546001600160a01b031633146104265760405162461bcd60e51b815260206004820152600e60248201526d2737ba103a34329039b2b63632b960911b60448201526064016102cc565b600481015460ff1661044a5760405162461bcd60e51b81526004016102cc9061115b565b60048101805460ff1916905560405182907f411aee90354c51b1b04cd563fcab2617142a9d50da19232d888547c8a1b7fd8a90600090a25061048b60018055565b50565b600360205281600052604060002081815481106104aa57600080fd5b6000918252602090912060029091020180546001909101546001600160a01b039091169250905082565b6104dc611008565b6104e66000611062565b565b6104f0610faf565b600082815260026020526040902080546001600160a01b031633146105485760405162461bcd60e51b815260206004820152600e60248201526d2737ba103a34329039b2b63632b960911b60448201526064016102cc565b600481015460ff1661056c5760405162461bcd60e51b81526004016102cc9061115b565b600083815260036020526040812080548490811061058c5761058c611187565b600091825260208083206040805180820190915260029093020180546001600160a01b0316835260010154908201819052600554919350612710916105d0916111b3565b6105da91906111d0565b905060008183602001516105ee91906111f2565b600654845160208601516040516323b872dd60e01b81529394506001600160a01b03909216926323b872dd9261062a9291309190600401611205565b6020604051808303816000875af1158015610649573d6000803e3d6000fd5b505050506040513d601f19601f8201168201806040525081019061066d9190611229565b6106ab5760405162461bcd60e51b815260206004820152600f60248201526e151c985b9cd9995c8819985a5b1959608a1b60448201526064016102cc565b600654845460405163a9059cbb60e01b81526001600160a01b0391821660048201526024810184905291169063a9059cbb906044016020604051808303816000875af11580156106ff573d6000803e3d6000fd5b505050506040513d601f19601f820116820180604052508101906107239190611229565b6107675760405162461bcd60e51b815260206004820152601560248201527414d95b1b195c881c185e5b595b9d0819985a5b1959605a1b60448201526064016102cc565b6006546001600160a01b031663a9059cbb61078a6000546001600160a01b031690565b6040516001600160e01b031960e084901b1681526001600160a01b039091166004820152602481018590526044016020604051808303816000875af11580156107d7573d6000803e3d6000fd5b505050506040513d601f19601f820116820180604052508101906107fb9190611229565b61083c5760405162461bcd60e51b8152602060048201526012602482015271119959481c185e5b595b9d0819985a5b195960721b60448201526064016102cc565b6001840154845484516002870154604051632142170760e11b81526001600160a01b03948516946342842e0e9461087a949116929091600401611205565b600060405180830381600087803b15801561089457600080fd5b505af11580156108a8573d6000803e3d6000fd5b5050505060048401805460ff1916905582516020808501516040519081526001600160a01b039092169188917fea555ab99331ceac5051c58f17cc7b411b30241b0e28cb93a7d3a24c77a7a9a9910160405180910390a3505050506103c260018055565b610914610faf565b6040516331a9108f60e11b815260048101839052839033906001600160a01b03831690636352211e90602401602060405180830381865afa15801561095d573d6000803e3d6000fd5b505050506040513d601f19601f82011682018060405250810190610981919061124b565b6001600160a01b0316146109c75760405162461bcd60e51b815260206004820152600d60248201526c2737ba103a34329037bbb732b960991b60448201526064016102cc565b60405163e985e9c560e01b81523360048201523060248201526001600160a01b0382169063e985e9c590604401602060405180830381865afa158015610a11573d6000803e3d6000fd5b505050506040513d601f19601f82011682018060405250810190610a359190611229565b610a795760405162461bcd60e51b815260206004820152601560248201527410dbdb9d1c9858dd081b9bdd08185c1c1c9bdd9959605a1b60448201526064016102cc565b60048054906000610a8983611268565b90915550506040805160a081018252338082526001600160a01b0387811660208085018281528587018a8152606087018a81526001608089018181526004805460009081526002808952908d90209b518c546001600160a01b0319908116918c16919091178d559651938c01805490971693909916929092179094559151958801959095559351600387015551948301805460ff191695151595909517909455905484518881529384018790529093919290917f723f73331eaee88eec7fc68ef60ab6ed15e4b90d0472b55eb92fa43910bab6dd910160405180910390a450610b7160018055565b505050565b610b7e611008565b6103e8811115610bbf5760405162461bcd60e51b815260206004820152600c60248201526b08ccaca40e8dede40d0d2ced60a31b60448201526064016102cc565b600555565b610bcc610faf565b6000818152600260205260409020600481015460ff16610bfe5760405162461bcd60e51b81526004016102cc9061115b565b600381015460055460009061271090610c1790846111b3565b610c2191906111d0565b90506000610c2f82846111f2565b6006546040516323b872dd60e01b81529192506001600160a01b0316906323b872dd90610c6490339030908890600401611205565b6020604051808303816000875af1158015610c83573d6000803e3d6000fd5b505050506040513d601f19601f82011682018060405250810190610ca79190611229565b610ce55760405162461bcd60e51b815260206004820152600f60248201526e151c985b9cd9995c8819985a5b1959608a1b60448201526064016102cc565b600654845460405163a9059cbb60e01b81526001600160a01b0391821660048201526024810184905291169063a9059cbb906044016020604051808303816000875af1158015610d39573d6000803e3d6000fd5b505050506040513d601f19601f82011682018060405250810190610d5d9190611229565b610da15760405162461bcd60e51b815260206004820152601560248201527414d95b1b195c881c185e5b595b9d0819985a5b1959605a1b60448201526064016102cc565b6006546001600160a01b031663a9059cbb610dc46000546001600160a01b031690565b6040516001600160e01b031960e084901b1681526001600160a01b039091166004820152602481018590526044016020604051808303816000875af1158015610e11573d6000803e3d6000fd5b505050506040513d601f19601f82011682018060405250810190610e359190611229565b610e765760405162461bcd60e51b8152602060048201526012602482015271119959481c185e5b595b9d0819985a5b195960721b60448201526064016102cc565b600184015484546002860154604051632142170760e11b81526001600160a01b03938416936342842e0e93610eb393911691339190600401611205565b600060405180830381600087803b158015610ecd57600080fd5b505af1158015610ee1573d6000803e3d6000fd5b5050505060048401805460ff19169055604080513381526020810185905286917fc0e076a004e59b819c1099b4799386d7feaa928662e5f3f95af4db1a1502520d910160405180910390a25050505061048b60018055565b610f41611008565b6001600160a01b038116610fa65760405162461bcd60e51b815260206004820152602660248201527f4f776e61626c653a206e6577206f776e657220697320746865207a65726f206160448201526564647265737360d01b60648201526084016102cc565b61048b81611062565b6002600154036110015760405162461bcd60e51b815260206004820152601f60248201527f5265656e7472616e637947756172643a207265656e7472616e742063616c6c0060448201526064016102cc565b6002600155565b6000546001600160a01b031633146104e65760405162461bcd60e51b815260206004820181905260248201527f4f776e61626c653a2063616c6c6572206973206e6f7420746865206f776e657260448201526064016102cc565b600080546001600160a01b038381166001600160a01b0319831681178455604051919092169283917f8be0079c531659141344cd1fd0a4f28419497f9722a3daafe3b4186f6b6457e09190a35050565b600080604083850312156110c557600080fd5b50508035926020909101359150565b6000602082840312156110e657600080fd5b5035919050565b6001600160a01b038116811461048b57600080fd5b60008060006060848603121561111757600080fd5b8335611122816110ed565b95602085013595506040909401359392505050565b60006020828403121561114957600080fd5b8135611154816110ed565b9392505050565b6020808252601290820152714c697374696e67206e6f742061637469766560701b604082015260600190565b634e487b7160e01b600052603260045260246000fd5b634e487b7160e01b600052601160045260246000fd5b80820281158282048414176111ca576111ca61119d565b92915050565b6000826111ed57634e487b7160e01b600052601260045260246000fd5b500490565b818103818111156111ca576111ca61119d565b6001600160a01b039384168152919092166020820152604081019190915260600190565b60006020828403121561123b57600080fd5b8151801515811461115457600080fd5b60006020828403121561125d57600080fd5b8151611154816110ed565b60006001820161127a5761127a61119d565b506001019056fea2646970667358221220e900aa495efc44b9d4be57d908d80d5510b81690a294e83cedf0ba831f50156864736f6c63430008130033",
  "linkReferences": {},
  "deployedLinkReferences": {}
}