{
  "_format": "hh-sol-artifact-1",
  "contractName": "SocialInteractions",
  "sourceName": "contracts/SocialInteractions.sol",
  "abi": [
    {
      "anonymous": false,
      "inputs": [
        {
          "indexed": true,
          "internalType": "uint256",
          "name": "postId",
          "type": "uint256"
        },
        {
          "indexed": true,
          "internalType": "uint256",
          "name": "commentId",
          "type": "uint256"
        },
        {
          "indexed": true,
          "internalType": "address",
          "name": "author",
          "type": "address"
        },
        {
          "indexed": false,
          "internalType": "string",
          "name": "content",
          "type": "string"
        }
      ],
      "name": "CommentAdded",
      "type": "event"
    },
    {
      "anonymous": false,
      "inputs": [
        {
          "indexed": true,
          "internalType": "uint256",
          "name": "postId",
          "type": "uint256"
        },
        {
          "indexed": true,
          "internalType": "uint256",
          "name": "commentId",
          "type": "uint256"
        },
        {
          "indexed": true,
          "internalType": "address",
          "name": "liker",
          "type": "address"
        }
      ],
      "name": "CommentLiked",
      "type": "event"
    },
    {
      "anonymous": false,
      "inputs": [
        {
          "indexed": true,
          "internalType": "uint256",
          "name": "postId",
          "type": "uint256"
        },
        {
          "indexed": true,
          "internalType": "uint256",
          "name": "commentId",
          "type": "uint256"
        },
        {
          "indexed": true,
          "internalType": "address",
          "name": "unliker",
          "type": "address"
        }
      ],
      "name": "CommentUnliked",
      "type": "event"
    },
    {
      "anonymous": false,
      "inputs": [
        {
          "indexed": true,
          "internalType": "address",
          "name": "previousOwner",
          "type": "address"
        },
        {
          "indexed": true,
          "internalType": "address",
          "name": "newOwner",
          "type": "address"
        }
      ],
      "name": "OwnershipTransferred",
      "type": "event"
    },
    {
      "anonymous": false,
      "inputs": [
        {
          "indexed": true,
          "internalType": "uint256",
          "name": "postId",
          "type": "uint256"
        },
        {
          "indexed": true,
          "internalType": "address",
          "name": "author",
          "type": "address"
        },
        {
          "indexed": false,
          "internalType": "string",
          "name": "content",
          "type": "string"
        }
      ],
      "name": "PostCreated",
      "type": "event"
    },
    {
      "anonymous": false,
      "inputs": [
        {
          "indexed": true,
          "internalType": "uint256",
          "name": "postId",
          "type": "uint256"
        },
        {
          "indexed": true,
          "internalType": "address",
          "name": "liker",
          "type": "address"
        }
      ],
      "name": "PostLiked",
      "type": "event"
    },
    {
      "anonymous": false,
      "inputs": [
        {
          "indexed": true,
          "internalType": "uint256",
          "name": "postId",
          "type": "uint256"
        },
        {
          "indexed": true,
          "internalType": "address",
          "name": "unliker",
          "type": "address"
        }
      ],
      "name": "PostUnliked",
      "type": "event"
    },
    {
      "inputs": [
        {
          "internalType": "uint256",
          "name": "_postId",
          "type": "uint256"
        },
        {
          "internalType": "string",
          "name": "_content",
          "type": "string"
        }
      ],
      "name": "addComment",
      "outputs": [],
      "stateMutability": "nonpayable",
      "type": "function"
    },
    {
      "inputs": [
        {
          "internalType": "uint256",
          "name": "",
          "type": "uint256"
        },
        {
          "internalType": "uint256",
          "name": "",
          "type": "uint256"
        },
        {
          "internalType": "address",
          "name": "",
          "type": "address"
        }
      ],
      "name": "commentLikes",
      "outputs": [
        {
          "internalType": "bool",
          "name": "",
          "type": "bool"
        }
      ],
      "stateMutability": "view",
      "type": "function"
    },
    {
      "inputs": [
        {
          "internalType": "uint256",
          "name": "",
          "type": "uint256"
        },
        {
          "internalType": "uint256",
          "name": "",
          "type": "uint256"
        }
      ],
      "name": "comments",
      "outputs": [
        {
          "internalType": "address",
          "name": "author",
          "type": "address"
        },
        {
          "internalType": "uint256",
          "name": "timestamp",
          "type": "uint256"
        },
        {
          "internalType": "string",
          "name": "content",
          "type": "string"
        },
        {
          "internalType": "uint256",
          "name": "likes",
          "type": "uint256"
        }
      ],
      "stateMutability": "view",
      "type": "function"
    },
    {
      "inputs": [
        {
          "internalType": "string",
          "name": "_content",
          "type": "string"
        }
      ],
      "name": "createPost",
      "outputs": [],
      "stateMutability": "nonpayable",
      "type": "function"
    },
    {
      "inputs": [
        {
          "internalType": "uint256",
          "name": "_postId",
          "type": "uint256"
        },
        {
          "internalType": "uint256",
          "name": "_commentId",
          "type": "uint256"
        }
      ],
      "name": "getComment",
      "outputs": [
        {
          "components": [
            {
              "internalType": "address",
              "name": "author",
              "type": "address"
            },
            {
              "internalType": "uint256",
              "name": "timestamp",
              "type": "uint256"
            },
            {
              "internalType": "string",
              "name": "content",
              "type": "string"
            },
            {
              "internalType": "uint256",
              "name": "likes",
              "type": "uint256"
            }
          ],
          "internalType": "struct SocialInteractions.Comment",
          "name": "",
          "type": "tuple"
        }
      ],
      "stateMutability": "view",
      "type": "function"
    },
    {
      "inputs": [
        {
          "internalType": "uint256",
          "name": "_postId",
          "type": "uint256"
        },
        {
          "internalType": "uint256",
          "name": "_commentId",
          "type": "uint256"
        },
        {
          "internalType": "address",
          "name": "_user",
          "type": "address"
        }
      ],
      "name": "getCommentLikeStatus",
      "outputs": [
        {
          "internalType": "bool",
          "name": "",
          "type": "bool"
        }
      ],
      "stateMutability": "view",
      "type": "function"
    },
    {
      "inputs": [
        {
          "internalType": "uint256",
          "name": "_postId",
          "type": "uint256"
        }
      ],
      "name": "getPost",
      "outputs": [
        {
          "components": [
            {
              "internalType": "address",
              "name": "author",
              "type": "address"
            },
            {
              "internalType": "uint256",
              "name": "timestamp",
              "type": "uint256"
            },
            {
              "internalType": "string",
              "name": "content",
              "type": "string"
            },
            {
              "internalType": "uint256",
              "name": "likes",
              "type": "uint256"
            },
            {
              "internalType": "uint256",
              "name": "commentCount",
              "type": "uint256"
            }
          ],
          "internalType": "struct SocialInteractions.Post",
          "name": "",
          "type": "tuple"
        }
      ],
      "stateMutability": "view",
      "type": "function"
    },
    {
      "inputs": [
        {
          "internalType": "uint256",
          "name": "_postId",
          "type": "uint256"
        },
        {
          "internalType": "address",
          "name": "_user",
          "type": "address"
        }
      ],
      "name": "getPostLikeStatus",
      "outputs": [
        {
          "internalType": "bool",
          "name": "",
          "type": "bool"
        }
      ],
      "stateMutability": "view",
      "type": "function"
    },
    {
      "inputs": [
        {
          "internalType": "uint256",
          "name": "_postId",
          "type": "uint256"
        },
        {
          "internalType": "uint256",
          "name": "_commentId",
          "type": "uint256"
        }
      ],
      "name": "likeComment",
      "outputs": [],
      "stateMutability": "nonpayable",
      "type": "function"
    },
    {
      "inputs": [
        {
          "internalType": "uint256",
          "name": "_postId",
          "type": "uint256"
        }
      ],
      "name": "likePost",
      "outputs": [],
      "stateMutability": "nonpayable",
      "type": "function"
    },
    {
      "inputs": [],
      "name": "owner",
      "outputs": [
        {
          "internalType": "address",
          "name": "",
          "type": "address"
        }
      ],
      "stateMutability": "view",
      "type": "function"
    },
    {
      "inputs": [
        {
          "internalType": "uint256",
          "name": "",
          "type": "uint256"
        },
        {
          "internalType": "address",
          "name": "",
          "type": "address"
        }
      ],
      "name": "postLikes",
      "outputs": [
        {
          "internalType": "bool",
          "name": "",
          "type": "bool"
        }
      ],
      "stateMutability": "view",
      "type": "function"
    },
    {
      "inputs": [
        {
          "internalType": "uint256",
          "name": "",
          "type": "uint256"
        }
      ],
      "name": "posts",
      "outputs": [
        {
          "internalType": "address",
          "name": "author",
          "type": "address"
        },
        {
          "internalType": "uint256",
          "name": "timestamp",
          "type": "uint256"
        },
        {
          "internalType": "string",
          "name": "content",
          "type": "string"
        },
        {
          "internalType": "uint256",
          "name": "likes",
          "type": "uint256"
        },
        {
          "internalType": "uint256",
          "name": "commentCount",
          "type": "uint256"
        }
      ],
      "stateMutability": "view",
      "type": "function"
    },
    {
      "inputs": [],
      "name": "renounceOwnership",
      "outputs": [],
      "stateMutability": "nonpayable",
      "type": "function"
    },
    {
      "inputs": [
        {
          "internalType": "address",
          "name": "newOwner",
          "type": "address"
        }
      ],
      "name": "transferOwnership",
      "outputs": [],
      "stateMutability": "nonpayable",
      "type": "function"
    },
    {
      "inputs": [
        {
          "internalType": "uint256",
          "name": "_postId",
          "type": "uint256"
        },
        {
          "internalType": "uint256",
          "name": "_commentId",
          "type": "uint256"
        }
      ],
      "name": "unlikeComment",
      "outputs": [],
      "stateMutability": "nonpayable",
      "type": "function"
    },
    {
      "inputs": [
        {
          "internalType": "uint256",
          "name": "_postId",
          "type": "uint256"
        }
      ],
      "name": "unlikePost",
      "outputs": [],
      "stateMutability": "nonpayable",
      "type": "function"
    }
  ],
  "bytecode": "0x608060405234801561001057600080fd5b5061001a33610023565b60018055610073565b600080546001600160a01b038381166001600160a01b0319831681178455604051919092169283917f8be0079c531659141344cd1fd0a4f28419497f9722a3daafe3b4186f6b6457e09190a35050565b6116d1806100826000396000f3fe608060405234801561001057600080fd5b506004361061010b5760003560e01c8063a0e91821116100a2578063c7303c6111610071578063c7303c61146102ab578063ca1f0cad146102be578063f2fde38b146102ec578063fa188de9146102ff578063fc6c776f1461031257600080fd5b8063a0e918211461020c578063a1ddf0cd1461021f578063a5e1cf0714610258578063aa7e56831461029857600080fd5b8063725009d3116100de578063725009d31461018757806385ec3d621461019a5780638da5cb5b146101ad578063a008e715146101c857600080fd5b80630b1e7f831461011057806340731c241461013d578063488927531461015d578063715018a61461017d575b600080fd5b61012361011e366004611144565b610335565b6040516101349594939291906111a3565b60405180910390f35b61015061014b366004611144565b6103f6565b60405161013491906111de565b61017061016b366004611236565b61054f565b6040516101349190611258565b6101856106d4565b005b610185610195366004611144565b6106e8565b6101856101a8366004611236565b6107f8565b6000546040516001600160a01b039091168152602001610134565b6101fc6101d63660046112c2565b600660209081526000938452604080852082529284528284209052825290205460ff1681565b6040519015158152602001610134565b61018561021a366004611236565b610959565b6101fc61022d3660046112f7565b60009182526005602090815260408084206001600160a01b0393909316845291905290205460ff1690565b6101fc6102663660046112c2565b60009283526006602090815260408085209385529281528284206001600160a01b039290921684525290205460ff1690565b6101856102a63660046113c6565b610abe565b6101856102b936600461140d565b610c7b565b6101fc6102cc3660046112f7565b600560209081526000928352604080842090915290825290205460ff1681565b6101856102fa36600461144a565b610e00565b61018561030d366004611144565b610e76565b610325610320366004611236565b610f7b565b604051610134949392919061146c565b6003602052600090815260409020805460018201546002830180546001600160a01b03909316939192610367906114a4565b80601f0160208091040260200160405190810160405280929190818152602001828054610393906114a4565b80156103e05780601f106103b5576101008083540402835291602001916103e0565b820191906000526020600020905b8154815290600101906020018083116103c357829003601f168201915b5050505050908060030154908060040154905085565b6104316040518060a0016040528060006001600160a01b03168152602001600081526020016060815260200160008152602001600081525090565b60008211801561044357506002548211155b6104685760405162461bcd60e51b815260040161045f906114de565b60405180910390fd5b600082815260036020908152604091829020825160a08101845281546001600160a01b0316815260018201549281019290925260028101805492939192918401916104b2906114a4565b80601f01602080910402602001604051908101604052809291908181526020018280546104de906114a4565b801561052b5780601f106105005761010080835404028352916020019161052b565b820191906000526020600020905b81548152906001019060200180831161050e57829003601f168201915b50505050508152602001600382015481526020016004820154815250509050919050565b610583604051806080016040528060006001600160a01b031681526020016000815260200160608152602001600081525090565b60008311801561059557506002548311155b6105b15760405162461bcd60e51b815260040161045f906114de565b6000821180156105d257506000838152600360205260409020600401548211155b6105ee5760405162461bcd60e51b815260040161045f90611507565b6000838152600460209081526040808320858452825291829020825160808101845281546001600160a01b031681526001820154928101929092526002810180549293919291840191610640906114a4565b80601f016020809104026020016040519081016040528092919081815260200182805461066c906114a4565b80156106b95780601f1061068e576101008083540402835291602001916106b9565b820191906000526020600020905b81548152906001019060200180831161069c57829003601f168201915b50505050508152602001600382015481525050905092915050565b6106dc611041565b6106e6600061109b565b565b6106f06110eb565b60008111801561070257506002548111155b61071e5760405162461bcd60e51b815260040161045f906114de565b600081815260056020908152604080832033845290915290205460ff16156107785760405162461bcd60e51b815260206004820152600d60248201526c105b1c9958591e481b1a5ad959609a1b604482015260640161045f565b600081815260036020819052604082209081018054919261079883611549565b90915550506000828152600560209081526040808320338085529252808320805460ff1916600117905551909184917fcf765d6f163c9b0d832e2a94f4c8e9bffd32a2c3ca5fdbb8cc67b5fe1441f4139190a3506107f560018055565b50565b6108006110eb565b60008211801561081257506002548211155b61082e5760405162461bcd60e51b815260040161045f906114de565b60008111801561084f57506000828152600360205260409020600401548111155b61086b5760405162461bcd60e51b815260040161045f90611507565b6000828152600660209081526040808320848452825280832033845290915290205460ff166108c85760405162461bcd60e51b8152602060048201526009602482015268139bdd081b1a5ad95960ba1b604482015260640161045f565b6000828152600460209081526040808320848452909152812060038101805491926108f283611562565b909155505060008381526006602090815260408083208584528252808320338085529252808320805460ff19169055519091849186917f116774f4e28f372a0827f1c18a3693741c12afd90a192fd557f77ed040f406c191a45061095560018055565b5050565b6109616110eb565b60008211801561097357506002548211155b61098f5760405162461bcd60e51b815260040161045f906114de565b6000811180156109b057506000828152600360205260409020600401548111155b6109cc5760405162461bcd60e51b815260040161045f90611507565b6000828152600660209081526040808320848452825280832033845290915290205460ff1615610a2e5760405162461bcd60e51b815260206004820152600d60248201526c105b1c9958591e481b1a5ad959609a1b604482015260640161045f565b600082815260046020908152604080832084845290915281206003810180549192610a5883611549565b909155505060008381526006602090815260408083208584528252808320338085529252808320805460ff19166001179055519091849186917f6682cf3eace902a4c13b8b2d1efbf6cd8a96633a6eea57be99ddce988cc3176691a45061095560018055565b610ac66110eb565b600082118015610ad857506002548211155b610af45760405162461bcd60e51b815260040161045f906114de565b6000815111610b3f5760405162461bcd60e51b8152602060048201526017602482015276436f6e74656e742063616e6e6f7420626520656d70747960481b604482015260640161045f565b6101f481511115610b855760405162461bcd60e51b815260206004820152601060248201526f436f6e74656e7420746f6f206c6f6e6760801b604482015260640161045f565b60008281526003602052604081206004810180549192610ba483611549565b9091555050600481810154604080516080810182523381524260208083019182528284018881526000606085018190528a815296825284872086885290915292909420815181546001600160a01b0319166001600160a01b03909116178155935160018501559051919290916002820190610c1f90826115c8565b5060608201518160030155905050336001600160a01b031681857f96d81cac001a263174d42d42cfad470fec9d863bcf6d52ba8b93d47c7ee00de386604051610c689190611688565b60405180910390a4505061095560018055565b610c836110eb565b6000815111610cce5760405162461bcd60e51b8152602060048201526017602482015276436f6e74656e742063616e6e6f7420626520656d70747960481b604482015260640161045f565b6103e881511115610d145760405162461bcd60e51b815260206004820152601060248201526f436f6e74656e7420746f6f206c6f6e6760801b604482015260640161045f565b610d22600280546001019055565b6000610d2d60025490565b6040805160a081018252338152426020808301918252828401878152600060608501819052608085018190528681526003909252939020825181546001600160a01b0319166001600160a01b03909116178155905160018201559151929350916002820190610d9c90826115c8565b506060820151816003015560808201518160040155905050336001600160a01b0316817f8e40a51278abe2f4b410c0a96ff0bdd024b22666ca334062bf72afd596984bd684604051610dee9190611688565b60405180910390a3506107f560018055565b610e08611041565b6001600160a01b038116610e6d5760405162461bcd60e51b815260206004820152602660248201527f4f776e61626c653a206e6577206f776e657220697320746865207a65726f206160448201526564647265737360d01b606482015260840161045f565b6107f58161109b565b610e7e6110eb565b600081118015610e9057506002548111155b610eac5760405162461bcd60e51b815260040161045f906114de565b600081815260056020908152604080832033845290915290205460ff16610f015760405162461bcd60e51b8152602060048201526009602482015268139bdd081b1a5ad95960ba1b604482015260640161045f565b6000818152600360208190526040822090810180549192610f2183611562565b90915550506000828152600560209081526040808320338085529252808320805460ff1916905551909184917f82092d1196022c48d901e5dc4b17451dbce942b8a9ded42fc6f2a4a5e8fd89b99190a3506107f560018055565b60046020908152600092835260408084209091529082529020805460018201546002830180546001600160a01b03909316939192610fb8906114a4565b80601f0160208091040260200160405190810160405280929190818152602001828054610fe4906114a4565b80156110315780601f1061100657610100808354040283529160200191611031565b820191906000526020600020905b81548152906001019060200180831161101457829003601f168201915b5050505050908060030154905084565b6000546001600160a01b031633146106e65760405162461bcd60e51b815260206004820181905260248201527f4f776e61626c653a2063616c6c6572206973206e6f7420746865206f776e6572604482015260640161045f565b600080546001600160a01b038381166001600160a01b0319831681178455604051919092169283917f8be0079c531659141344cd1fd0a4f28419497f9722a3daafe3b4186f6b6457e09190a35050565b60026001540361113d5760405162461bcd60e51b815260206004820152601f60248201527f5265656e7472616e637947756172643a207265656e7472616e742063616c6c00604482015260640161045f565b6002600155565b60006020828403121561115657600080fd5b5035919050565b6000815180845260005b8181101561118357602081850181015186830182015201611167565b506000602082860101526020601f19601f83011685010191505092915050565b60018060a01b038616815284602082015260a0604082015260006111ca60a083018661115d565b606083019490945250608001529392505050565b6020815260018060a01b038251166020820152602082015160408201526000604083015160a0606084015261121660c084018261115d565b905060608401516080840152608084015160a08401528091505092915050565b6000806040838503121561124957600080fd5b50508035926020909101359150565b6020815260018060a01b03825116602082015260208201516040820152600060408301516080606084015261129060a084018261115d565b9050606084015160808401528091505092915050565b80356001600160a01b03811681146112bd57600080fd5b919050565b6000806000606084860312156112d757600080fd5b83359250602084013591506112ee604085016112a6565b90509250925092565b6000806040838503121561130a57600080fd5b8235915061131a602084016112a6565b90509250929050565b634e487b7160e01b600052604160045260246000fd5b600082601f83011261134a57600080fd5b813567ffffffffffffffff8082111561136557611365611323565b604051601f8301601f19908116603f0116810190828211818310171561138d5761138d611323565b816040528381528660208588010111156113a657600080fd5b836020870160208301376000602085830101528094505050505092915050565b600080604083850312156113d957600080fd5b82359150602083013567ffffffffffffffff8111156113f757600080fd5b61140385828601611339565b9150509250929050565b60006020828403121561141f57600080fd5b813567ffffffffffffffff81111561143657600080fd5b61144284828501611339565b949350505050565b60006020828403121561145c57600080fd5b611465826112a6565b9392505050565b60018060a01b0385168152836020820152608060408201526000611493608083018561115d565b905082606083015295945050505050565b600181811c908216806114b857607f821691505b6020821081036114d857634e487b7160e01b600052602260045260246000fd5b50919050565b6020808252600f908201526e125b9d985b1a59081c1bdcdd081251608a1b604082015260600190565b602080825260129082015271125b9d985b1a590818dbdb5b595b9d08125160721b604082015260600190565b634e487b7160e01b600052601160045260246000fd5b60006001820161155b5761155b611533565b5060010190565b60008161157157611571611533565b506000190190565b601f8211156115c357600081815260208120601f850160051c810160208610156115a05750805b601f850160051c820191505b818110156115bf578281556001016115ac565b5050505b505050565b815167ffffffffffffffff8111156115e2576115e2611323565b6115f6816115f084546114a4565b84611579565b602080601f83116001811461162b57600084156116135750858301515b600019600386901b1c1916600185901b1785556115bf565b600085815260208120601f198616915b8281101561165a5788860151825594840194600190910190840161163b565b50858210156116785787850151600019600388901b60f8161c191681555b5050505050600190811b01905550565b602081526000611465602083018461115d56fea2646970667358221220b2223623dcc8c24c1633977db9f37792b07dba54e555ae7cedc70583cda4469264736f6c63430008130033",
  "linkReferences": {},
  "deployedLinkReferences": {}
}