{
  "_format": "hh-sol-artifact-1",
  "contractName": "Staking",
  "sourceName": "contracts/Staking.sol",
  "abi": [
    {
      "inputs": [
        {
          "internalType": "address",
          "name": "_stakingToken",
          "type": "address"
        },
        {
          "internalType": "address",
          "name": "_rewardsToken",
          "type": "address"
        }
      ],
      "stateMutability": "nonpayable",
      "type": "constructor"
    },
    {
      "anonymous": false,
      "inputs": [
        {
          "indexed": true,
          "internalType": "address",
          "name": "previousOwner",
          "type": "address"
        },
        {
          "indexed": true,
          "internalType": "address",
          "name": "newOwner",
          "type": "address"
        }
      ],
      "name": "OwnershipTransferred",
      "type": "event"
    },
    {
      "anonymous": false,
      "inputs": [
        {
          "indexed": true,
          "internalType": "address",
          "name": "user",
          "type": "address"
        },
        {
          "indexed": false,
          "internalType": "uint256",
          "name": "reward",
          "type": "uint256"
        }
      ],
      "name": "RewardPaid",
      "type": "event"
    },
    {
      "anonymous": false,
      "inputs": [
        {
          "indexed": true,
          "internalType": "address",
          "name": "user",
          "type": "address"
        },
        {
          "indexed": false,
          "internalType": "uint256",
          "name": "amount",
          "type": "uint256"
        }
      ],
      "name": "Staked",
      "type": "event"
    },
    {
      "anonymous": false,
      "inputs": [
        {
          "indexed": true,
          "internalType": "address",
          "name": "user",
          "type": "address"
        },
        {
          "indexed": false,
          "internalType": "uint256",
          "name": "amount",
          "type": "uint256"
        }
      ],
      "name": "Withdrawn",
      "type": "event"
    },
    {
      "inputs": [
        {
          "internalType": "address",
          "name": "account",
          "type": "address"
        }
      ],
      "name": "balanceOf",
      "outputs": [
        {
          "internalType": "uint256",
          "name": "",
          "type": "uint256"
        }
      ],
      "stateMutability": "view",
      "type": "function"
    },
    {
      "inputs": [
        {
          "internalType": "address",
          "name": "account",
          "type": "address"
        }
      ],
      "name": "earned",
      "outputs": [
        {
          "internalType": "uint256",
          "name": "",
          "type": "uint256"
        }
      ],
      "stateMutability": "view",
      "type": "function"
    },
    {
      "inputs": [],
      "name": "exit",
      "outputs": [],
      "stateMutability": "nonpayable",
      "type": "function"
    },
    {
      "inputs": [],
      "name": "getReward",
      "outputs": [],
      "stateMutability": "nonpayable",
      "type": "function"
    },
    {
      "inputs": [],
      "name": "lastUpdateTime",
      "outputs": [
        {
          "internalType": "uint256",
          "name": "",
          "type": "uint256"
        }
      ],
      "stateMutability": "view",
      "type": "function"
    },
    {
      "inputs": [],
      "name": "owner",
      "outputs": [
        {
          "internalType": "address",
          "name": "",
          "type": "address"
        }
      ],
      "stateMutability": "view",
      "type": "function"
    },
    {
      "inputs": [],
      "name": "renounceOwnership",
      "outputs": [],
      "stateMutability": "nonpayable",
      "type": "function"
    },
    {
      "inputs": [],
      "name": "rewardPerToken",
      "outputs": [
        {
          "internalType": "uint256",
          "name": "",
          "type": "uint256"
        }
      ],
      "stateMutability": "view",
      "type": "function"
    },
    {
      "inputs": [],
      "name": "rewardPerTokenStored",
      "outputs": [
        {
          "internalType": "uint256",
          "name": "",
          "type": "uint256"
        }
      ],
      "stateMutability": "view",
      "type": "function"
    },
    {
      "inputs": [],
      "name": "rewardRate",
      "outputs": [
        {
          "internalType": "uint256",
          "name": "",
          "type": "uint256"
        }
      ],
      "stateMutability": "view",
      "type": "function"
    },
    {
      "inputs": [
        {
          "internalType": "address",
          "name": "",
          "type": "address"
        }
      ],
      "name": "rewards",
      "outputs": [
        {
          "internalType": "uint256",
          "name": "",
          "type": "uint256"
        }
      ],
      "stateMutability": "view",
      "type": "function"
    },
    {
      "inputs": [],
      "name": "rewardsToken",
      "outputs": [
        {
          "internalType": "contract IERC20",
          "name": "",
          "type": "address"
        }
      ],
      "stateMutability": "view",
      "type": "function"
    },
    {
      "inputs": [
        {
          "internalType": "uint256",
          "name": "_rewardRate",
          "type": "uint256"
        }
      ],
      "name": "setRewardRate",
      "outputs": [],
      "stateMutability": "nonpayable",
      "type": "function"
    },
    {
      "inputs": [
        {
          "internalType": "uint256",
          "name": "amount",
          "type": "uint256"
        }
      ],
      "name": "stake",
      "outputs": [],
      "stateMutability": "nonpayable",
      "type": "function"
    },
    {
      "inputs": [],
      "name": "stakingToken",
      "outputs": [
        {
          "internalType": "contract IERC20",
          "name": "",
          "type": "address"
        }
      ],
      "stateMutability": "view",
      "type": "function"
    },
    {
      "inputs": [],
      "name": "totalSupply",
      "outputs": [
        {
          "internalType": "uint256",
          "name": "",
          "type": "uint256"
        }
      ],
      "stateMutability": "view",
      "type": "function"
    },
    {
      "inputs": [
        {
          "internalType": "address",
          "name": "newOwner",
          "type": "address"
        }
      ],
      "name": "transferOwnership",
      "outputs": [],
      "stateMutability": "nonpayable",
      "type": "function"
    },
    {
      "inputs": [
        {
          "internalType": "address",
          "name": "",
          "type": "address"
        }
      ],
      "name": "userRewardPerTokenPaid",
      "outputs": [
        {
          "internalType": "uint256",
          "name": "",
          "type": "uint256"
        }
      ],
      "stateMutability": "view",
      "type": "function"
    },
    {
      "inputs": [
        {
          "internalType": "uint256",
          "name": "amount",
          "type": "uint256"
        }
      ],
      "name": "withdraw",
      "outputs": [],
      "stateMutability": "nonpayable",
      "type": "function"
    }
  ],
  "bytecode": "0x6080604052606460045534801561001557600080fd5b50604051610ea5380380610ea5833981016040819052610034916100e1565b600160005561004233610073565b600280546001600160a01b039384166001600160a01b03199182161790915560038054929093169116179055610114565b600180546001600160a01b038381166001600160a01b0319831681179093556040519116919082907f8be0079c531659141344cd1fd0a4f28419497f9722a3daafe3b4186f6b6457e090600090a35050565b80516001600160a01b03811681146100dc57600080fd5b919050565b600080604083850312156100f457600080fd5b6100fd836100c5565b915061010b602084016100c5565b90509250929050565b610d82806101236000396000f3fe608060405234801561001057600080fd5b50600436106101205760003560e01c80638b876347116100ad578063cd3daf9d11610071578063cd3daf9d14610255578063d1af0c7d1461025d578063df136d6514610270578063e9fad8ee14610279578063f2fde38b1461028157600080fd5b80638b876347146101f55780638da5cb5b146102155780639e447fc614610226578063a694fc3a14610239578063c8f33c911461024c57600080fd5b80633d18b912116100f45780633d18b9121461018857806370a0823114610190578063715018a6146101b957806372f702f3146101c15780637b0a47ee146101ec57600080fd5b80628cc262146101255780630700037d1461014b57806318160ddd1461016b5780632e1a7d4d14610173575b600080fd5b610138610133366004610c00565b610294565b6040519081526020015b60405180910390f35b610138610159366004610c00565b60086020526000908152604090205481565b600954610138565b610186610181366004610c29565b610312565b005b610186610451565b61013861019e366004610c00565b6001600160a01b03166000908152600a602052604090205490565b610186610530565b6002546101d4906001600160a01b031681565b6040516001600160a01b039091168152602001610142565b61013860045481565b610138610203366004610c00565b60076020526000908152604090205481565b6001546001600160a01b03166101d4565b610186610234366004610c29565b610542565b610186610247366004610c29565b6105a5565b61013860055481565b6101386106cb565b6003546101d4906001600160a01b031681565b61013860065481565b610186610722565b61018661028f366004610c00565b610743565b6001600160a01b038116600090815260086020908152604080832054600790925282205461030c919061030690670de0b6b3a764000090610300906102e1906102db6106cb565b906107b9565b6001600160a01b0388166000908152600a6020526040902054906107cc565b906107d8565b906107e4565b92915050565b61031a6107f0565b336103236106cb565b600655426005556001600160a01b0381161561036e5761034281610294565b6001600160a01b0382166000908152600860209081526040808320939093556006546007909152919020555b600082116103b75760405162461bcd60e51b8152602060048201526011602482015270043616e6e6f74207769746864726177203607c1b60448201526064015b60405180910390fd5b6009546103c490836107b9565b600955336000908152600a60205260409020546103e190836107b9565b336000818152600a602052604090209190915560025461040d916001600160a01b039091169084610849565b60405182815233907f7084f5476618d8e60b11ef0d7d3f06914655adb8793e28ff7f018d4c76d505d5906020015b60405180910390a25061044e6001600055565b50565b6104596107f0565b336104626106cb565b600655426005556001600160a01b038116156104ad5761048181610294565b6001600160a01b0382166000908152600860209081526040808320939093556006546007909152919020555b33600090815260086020526040902054801561052257336000818152600860205260408120556003546104ec916001600160a01b039091169083610849565b60405181815233907fe2403640ba68fed3a2f88b7557551d1993f84b99bb10ff833f0cf8db0c5e04869060200160405180910390a25b505061052e6001600055565b565b6105386108b1565b61052e600061090b565b61054a6108b1565b60006105546106cb565b600655426005556001600160a01b0381161561059f5761057381610294565b6001600160a01b0382166000908152600860209081526040808320939093556006546007909152919020555b50600455565b6105ad6107f0565b336105b66106cb565b600655426005556001600160a01b03811615610601576105d581610294565b6001600160a01b0382166000908152600860209081526040808320939093556006546007909152919020555b600082116106425760405162461bcd60e51b815260206004820152600e60248201526d043616e6e6f74207374616b6520360941b60448201526064016103ae565b60095461064f90836107e4565b600955336000908152600a602052604090205461066c90836107e4565b336000818152600a6020526040902091909155600254610699916001600160a01b0390911690308561095d565b60405182815233907f9e71bc8eea02a63969f509818f2dafb9254532904319f9dbda79b67bd34a5f3d9060200161043b565b60006009546000036106de575060065490565b61071d610714600954610300670de0b6b3a764000061070e60045461070e600554426107b990919063ffffffff16565b906107cc565b600654906107e4565b905090565b336000908152600a602052604090205461073b90610312565b61052e610451565b61074b6108b1565b6001600160a01b0381166107b05760405162461bcd60e51b815260206004820152602660248201527f4f776e61626c653a206e6577206f776e657220697320746865207a65726f206160448201526564647265737360d01b60648201526084016103ae565b61044e8161090b565b60006107c58284610c58565b9392505050565b60006107c58284610c6b565b60006107c58284610c82565b60006107c58284610ca4565b6002600054036108425760405162461bcd60e51b815260206004820152601f60248201527f5265656e7472616e637947756172643a207265656e7472616e742063616c6c0060448201526064016103ae565b6002600055565b6040516001600160a01b0383166024820152604481018290526108ac90849063a9059cbb60e01b906064015b60408051601f198184030181529190526020810180516001600160e01b03166001600160e01b03199093169290921790915261099b565b505050565b6001546001600160a01b0316331461052e5760405162461bcd60e51b815260206004820181905260248201527f4f776e61626c653a2063616c6c6572206973206e6f7420746865206f776e657260448201526064016103ae565b600180546001600160a01b038381166001600160a01b0319831681179093556040519116919082907f8be0079c531659141344cd1fd0a4f28419497f9722a3daafe3b4186f6b6457e090600090a35050565b6040516001600160a01b03808516602483015283166044820152606481018290526109959085906323b872dd60e01b90608401610875565b50505050565b60006109f0826040518060400160405280602081526020017f5361666545524332303a206c6f772d6c6576656c2063616c6c206661696c6564815250856001600160a01b0316610a709092919063ffffffff16565b9050805160001480610a11575080806020019051810190610a119190610cb7565b6108ac5760405162461bcd60e51b815260206004820152602a60248201527f5361666545524332303a204552433230206f7065726174696f6e20646964206e6044820152691bdd081cdd58d8d9595960b21b60648201526084016103ae565b6060610a7f8484600085610a87565b949350505050565b606082471015610ae85760405162461bcd60e51b815260206004820152602660248201527f416464726573733a20696e73756666696369656e742062616c616e636520666f6044820152651c8818d85b1b60d21b60648201526084016103ae565b600080866001600160a01b03168587604051610b049190610cfd565b60006040518083038185875af1925050503d8060008114610b41576040519150601f19603f3d011682016040523d82523d6000602084013e610b46565b606091505b5091509150610b5787838387610b62565b979650505050505050565b60608315610bd1578251600003610bca576001600160a01b0385163b610bca5760405162461bcd60e51b815260206004820152601d60248201527f416464726573733a2063616c6c20746f206e6f6e2d636f6e747261637400000060448201526064016103ae565b5081610a7f565b610a7f8383815115610be65781518083602001fd5b8060405162461bcd60e51b81526004016103ae9190610d19565b600060208284031215610c1257600080fd5b81356001600160a01b03811681146107c557600080fd5b600060208284031215610c3b57600080fd5b5035919050565b634e487b7160e01b600052601160045260246000fd5b8181038181111561030c5761030c610c42565b808202811582820484141761030c5761030c610c42565b600082610c9f57634e487b7160e01b600052601260045260246000fd5b500490565b8082018082111561030c5761030c610c42565b600060208284031215610cc957600080fd5b815180151581146107c557600080fd5b60005b83811015610cf4578181015183820152602001610cdc565b50506000910152565b60008251610d0f818460208701610cd9565b9190910192915050565b6020815260008251806020840152610d38816040850160208701610cd9565b601f01601f1916919091016040019291505056fea2646970667358221220edff68d4973022d109bc4d8a38e44ba5670ec138996902f4248f466029621b7e64736f6c63430008130033",
  "linkReferences": {},
  "deployedLinkReferences": {}
}