{
  "_format": "hh-sol-artifact-1",
  "contractName": "TokenDistribution",
  "sourceName": "contracts/TokenDistribution.sol",
  "abi": [
    {
      "inputs": [
        {
          "internalType": "address",
          "name": "_coreToken",
          "type": "address"
        }
      ],
      "stateMutability": "nonpayable",
      "type": "constructor"
    },
    {
      "anonymous": false,
      "inputs": [
        {
          "indexed": true,
          "internalType": "address",
          "name": "user",
          "type": "address"
        },
        {
          "indexed": false,
          "internalType": "uint256",
          "name": "amount",
          "type": "uint256"
        }
      ],
      "name": "AllocationSet",
      "type": "event"
    },
    {
      "anonymous": false,
      "inputs": [
        {
          "indexed": true,
          "internalType": "address",
          "name": "user",
          "type": "address"
        },
        {
          "indexed": false,
          "internalType": "bool",
          "name": "isEligible",
          "type": "bool"
        }
      ],
      "name": "EligibilitySet",
      "type": "event"
    },
    {
      "anonymous": false,
      "inputs": [
        {
          "indexed": true,
          "internalType": "address",
          "name": "previousOwner",
          "type": "address"
        },
        {
          "indexed": true,
          "internalType": "address",
          "name": "newOwner",
          "type": "address"
        }
      ],
      "name": "OwnershipTransferred",
      "type": "event"
    },
    {
      "anonymous": false,
      "inputs": [
        {
          "indexed": true,
          "internalType": "address",
          "name": "user",
          "type": "address"
        },
        {
          "indexed": false,
          "internalType": "uint256",
          "name": "amount",
          "type": "uint256"
        },
        {
          "indexed": false,
          "internalType": "uint256",
          "name": "period",
          "type": "uint256"
        }
      ],
      "name": "TokensClaimed",
      "type": "event"
    },
    {
      "inputs": [],
      "name": "DISTRIBUTION_PERIOD",
      "outputs": [
        {
          "internalType": "uint256",
          "name": "",
          "type": "uint256"
        }
      ],
      "stateMutability": "view",
      "type": "function"
    },
    {
      "inputs": [],
      "name": "TOTAL_DISTRIBUTION_PERIODS",
      "outputs": [
        {
          "internalType": "uint256",
          "name": "",
          "type": "uint256"
        }
      ],
      "stateMutability": "view",
      "type": "function"
    },
    {
      "inputs": [],
      "name": "claimTokens",
      "outputs": [],
      "stateMutability": "nonpayable",
      "type": "function"
    },
    {
      "inputs": [],
      "name": "coreToken",
      "outputs": [
        {
          "internalType": "contract IERC20",
          "name": "",
          "type": "address"
        }
      ],
      "stateMutability": "view",
      "type": "function"
    },
    {
      "inputs": [],
      "name": "currentPeriod",
      "outputs": [
        {
          "internalType": "uint256",
          "name": "",
          "type": "uint256"
        }
      ],
      "stateMutability": "view",
      "type": "function"
    },
    {
      "inputs": [
        {
          "internalType": "address",
          "name": "",
          "type": "address"
        },
        {
          "internalType": "uint256",
          "name": "",
          "type": "uint256"
        }
      ],
      "name": "hasClaimed",
      "outputs": [
        {
          "internalType": "bool",
          "name": "",
          "type": "bool"
        }
      ],
      "stateMutability": "view",
      "type": "function"
    },
    {
      "inputs": [
        {
          "internalType": "address",
          "name": "",
          "type": "address"
        }
      ],
      "name": "isEligible",
      "outputs": [
        {
          "internalType": "bool",
          "name": "",
          "type": "bool"
        }
      ],
      "stateMutability": "view",
      "type": "function"
    },
    {
      "inputs": [],
      "name": "owner",
      "outputs": [
        {
          "internalType": "address",
          "name": "",
          "type": "address"
        }
      ],
      "stateMutability": "view",
      "type": "function"
    },
    {
      "inputs": [],
      "name": "renounceOwnership",
      "outputs": [],
      "stateMutability": "nonpayable",
      "type": "function"
    },
    {
      "inputs": [
        {
          "internalType": "address[]",
          "name": "_users",
          "type": "address[]"
        },
        {
          "internalType": "uint256[]",
          "name": "_amounts",
          "type": "uint256[]"
        }
      ],
      "name": "setAllocations",
      "outputs": [],
      "stateMutability": "nonpayable",
      "type": "function"
    },
    {
      "inputs": [
        {
          "internalType": "address[]",
          "name": "_users",
          "type": "address[]"
        },
        {
          "internalType": "bool[]",
          "name": "_eligibility",
          "type": "bool[]"
        }
      ],
      "name": "setEligibility",
      "outputs": [],
      "stateMutability": "nonpayable",
      "type": "function"
    },
    {
      "inputs": [],
      "name": "startTime",
      "outputs": [
        {
          "internalType": "uint256",
          "name": "",
          "type": "uint256"
        }
      ],
      "stateMutability": "view",
      "type": "function"
    },
    {
      "inputs": [],
      "name": "totalAllocated",
      "outputs": [
        {
          "internalType": "uint256",
          "name": "",
          "type": "uint256"
        }
      ],
      "stateMutability": "view",
      "type": "function"
    },
    {
      "inputs": [],
      "name": "totalDistributed",
      "outputs": [
        {
          "internalType": "uint256",
          "name": "",
          "type": "uint256"
        }
      ],
      "stateMutability": "view",
      "type": "function"
    },
    {
      "inputs": [
        {
          "internalType": "address",
          "name": "newOwner",
          "type": "address"
        }
      ],
      "name": "transferOwnership",
      "outputs": [],
      "stateMutability": "nonpayable",
      "type": "function"
    },
    {
      "inputs": [
        {
          "internalType": "address",
          "name": "",
          "type": "address"
        }
      ],
      "name": "userAllocations",
      "outputs": [
        {
          "internalType": "uint256",
          "name": "",
          "type": "uint256"
        }
      ],
      "stateMutability": "view",
      "type": "function"
    },
    {
      "inputs": [],
      "name": "withdrawRemainingTokens",
      "outputs": [],
      "stateMutability": "nonpayable",
      "type": "function"
    }
  ],
  "bytecode": "0x608060405234801561001057600080fd5b5060405161104e38038061104e83398101604081905261002f916100ba565b6100383361006a565b6001808055600280546001600160a01b0319166001600160a01b039390931692909217909155426003556006556100ea565b600080546001600160a01b038381166001600160a01b0319831681178455604051919092169283917f8be0079c531659141344cd1fd0a4f28419497f9722a3daafe3b4186f6b6457e09190a35050565b6000602082840312156100cc57600080fd5b81516001600160a01b03811681146100e357600080fd5b9392505050565b610f55806100f96000396000f3fe608060405234801561001057600080fd5b506004361061010b5760003560e01c806378e97925116100a2578063b092deb111610071578063b092deb114610202578063b29310961461020c578063e42014d91461023a578063efca2eed1461024d578063f2fde38b1461025657600080fd5b806378e97925146101d85780638afbf669146101e15780638da5cb5b146101e9578063a22154cb146101fa57600080fd5b806348c54b9d116100de57806348c54b9d146101755780634c0c87ff1461017d57806366e305fd1461019d578063715018a6146101d057600080fd5b806306040618146101105780630c2b72e91461012c5780631ff64acd1461015757806345f7f2491461016c575b600080fd5b61011960065481565b6040519081526020015b60405180910390f35b60025461013f906001600160a01b031681565b6040516001600160a01b039091168152602001610123565b61016a610165366004610d46565b610269565b005b61011960045481565b61016a610479565b61011961018b366004610dce565b60086020526000908152604090205481565b6101c06101ab366004610dce565b60076020526000908152604090205460ff1681565b6040519015158152602001610123565b61016a610849565b61011960035481565b61016a61085b565b6000546001600160a01b031661013f565b610119600c81565b61011962278d0081565b6101c061021a366004610de9565b600960209081526000928352604080842090915290825290205460ff1681565b61016a610248366004610d46565b6109d3565b61011960055481565b61016a610264366004610dce565b610b45565b610271610bbe565b8281146102be5760405162461bcd60e51b8152602060048201526016602482015275082e4e4c2f2e640d8cadccee8d040dad2e6dac2e8c6d60531b60448201526064015b60405180910390fd5b60005b8381101561047257600760008686848181106102df576102df610e13565b90506020020160208101906102f49190610dce565b6001600160a01b0316815260208101919091526040016000205460ff166103515760405162461bcd60e51b815260206004820152601160248201527055736572206e6f7420656c696769626c6560781b60448201526064016102b5565b82828281811061036357610363610e13565b905060200201356008600087878581811061038057610380610e13565b90506020020160208101906103959190610dce565b6001600160a01b031681526020810191909152604001600020556103dc8383838181106103c4576103c4610e13565b90506020020135600454610c1890919063ffffffff16565b6004558484828181106103f1576103f1610e13565b90506020020160208101906104069190610dce565b6001600160a01b03167fedfc909d0ab2a1625b7911d925efbd8200cdd99d4c7ba44e720328b17879f0b384848481811061044257610442610e13565b9050602002013560405161045891815260200190565b60405180910390a28061046a81610e3f565b9150506102c1565b5050505050565b610481610c2d565b3360009081526007602052604090205460ff166104e05760405162461bcd60e51b815260206004820152601d60248201527f4e6f7420656c696769626c6520666f7220646973747269627574696f6e00000060448201526064016102b5565b336000908152600860205260409020546105355760405162461bcd60e51b815260206004820152601660248201527527379030b63637b1b0ba34b7b7103337b9103ab9b2b960511b60448201526064016102b5565b600061055962278d0061055360035442610c8690919063ffffffff16565b90610c92565b9050600081116105b55760405162461bcd60e51b815260206004820152602160248201527f4e6f20706572696f647320617661696c61626c6520666f7220636c61696d696e6044820152606760f81b60648201526084016102b5565b6006546000905b8281111580156105cd5750600c8111155b156106565733600090815260096020908152604080832084845290915290205460ff16610644573360009081526008602052604081205461060f90600c610c92565b905061061b8382610c18565b3360009081526009602090815260408083208684529091529020805460ff191660011790559250505b8061064e81610e3f565b9150506105bc565b506000811161069c5760405162461bcd60e51b81526020600482015260126024820152714e6f20746f6b656e7320746f20636c61696d60701b60448201526064016102b5565b6002546040516370a0823160e01b815230600482015282916001600160a01b0316906370a0823190602401602060405180830381865afa1580156106e4573d6000803e3d6000fd5b505050506040513d601f19601f820116820180604052508101906107089190610e58565b10156107565760405162461bcd60e51b815260206004820152601d60248201527f496e73756666696369656e7420636f6e74726163742062616c616e636500000060448201526064016102b5565b6005546107639082610c18565b60055560025460405163a9059cbb60e01b8152336004820152602481018390526001600160a01b039091169063a9059cbb906044016020604051808303816000875af11580156107b7573d6000803e3d6000fd5b505050506040513d601f19601f820116820180604052508101906107db9190610e7f565b50604080518281526020810184905233917f9923b4306c6c030f2bdfbf156517d5983b87e15b96176da122cd4f2effa4ba7b910160405180910390a2600c610824836001610c18565b1161083957610834826001610c18565b61083c565b600c5b600655505060018055565b565b610851610bbe565b6108476000610c9e565b610863610bbe565b61087d61087462278d00600c610cee565b60035490610c18565b42116108cb5760405162461bcd60e51b815260206004820152601d60248201527f446973747269627574696f6e20706572696f64206e6f7420656e64656400000060448201526064016102b5565b6002546040516370a0823160e01b81523060048201526000916001600160a01b0316906370a0823190602401602060405180830381865afa158015610914573d6000803e3d6000fd5b505050506040513d601f19601f820116820180604052508101906109389190610e58565b6002549091506001600160a01b031663a9059cbb61095e6000546001600160a01b031690565b6040516001600160e01b031960e084901b1681526001600160a01b039091166004820152602481018490526044016020604051808303816000875af11580156109ab573d6000803e3d6000fd5b505050506040513d601f19601f820116820180604052508101906109cf9190610e7f565b5050565b6109db610bbe565b828114610a235760405162461bcd60e51b8152602060048201526016602482015275082e4e4c2f2e640d8cadccee8d040dad2e6dac2e8c6d60531b60448201526064016102b5565b60005b8381101561047257828282818110610a4057610a40610e13565b9050602002016020810190610a559190610ea3565b60076000878785818110610a6b57610a6b610e13565b9050602002016020810190610a809190610dce565b6001600160a01b031681526020810191909152604001600020805460ff1916911515919091179055848482818110610aba57610aba610e13565b9050602002016020810190610acf9190610dce565b6001600160a01b03167f84491124de7d287ce3f02c6f49337e6bc1e12b50ab8f8f58c93ea2e14f6f3511848484818110610b0b57610b0b610e13565b9050602002016020810190610b209190610ea3565b604051901515815260200160405180910390a280610b3d81610e3f565b915050610a26565b610b4d610bbe565b6001600160a01b038116610bb25760405162461bcd60e51b815260206004820152602660248201527f4f776e61626c653a206e6577206f776e657220697320746865207a65726f206160448201526564647265737360d01b60648201526084016102b5565b610bbb81610c9e565b50565b6000546001600160a01b031633146108475760405162461bcd60e51b815260206004820181905260248201527f4f776e61626c653a2063616c6c6572206973206e6f7420746865206f776e657260448201526064016102b5565b6000610c248284610ec0565b90505b92915050565b600260015403610c7f5760405162461bcd60e51b815260206004820152601f60248201527f5265656e7472616e637947756172643a207265656e7472616e742063616c6c0060448201526064016102b5565b6002600155565b6000610c248284610ed3565b6000610c248284610ee6565b600080546001600160a01b038381166001600160a01b0319831681178455604051919092169283917f8be0079c531659141344cd1fd0a4f28419497f9722a3daafe3b4186f6b6457e09190a35050565b6000610c248284610f08565b60008083601f840112610d0c57600080fd5b50813567ffffffffffffffff811115610d2457600080fd5b6020830191508360208260051b8501011115610d3f57600080fd5b9250929050565b60008060008060408587031215610d5c57600080fd5b843567ffffffffffffffff80821115610d7457600080fd5b610d8088838901610cfa565b90965094506020870135915080821115610d9957600080fd5b50610da687828801610cfa565b95989497509550505050565b80356001600160a01b0381168114610dc957600080fd5b919050565b600060208284031215610de057600080fd5b610c2482610db2565b60008060408385031215610dfc57600080fd5b610e0583610db2565b946020939093013593505050565b634e487b7160e01b600052603260045260246000fd5b634e487b7160e01b600052601160045260246000fd5b600060018201610e5157610e51610e29565b5060010190565b600060208284031215610e6a57600080fd5b5051919050565b8015158114610bbb57600080fd5b600060208284031215610e9157600080fd5b8151610e9c81610e71565b9392505050565b600060208284031215610eb557600080fd5b8135610e9c81610e71565b80820180821115610c2757610c27610e29565b81810381811115610c2757610c27610e29565b600082610f0357634e487b7160e01b600052601260045260246000fd5b500490565b8082028115828204841417610c2757610c27610e2956fea2646970667358221220d93f5cc03770412ae09139dbd56dc3366cecae316cec4f866d170daac2b9581264736f6c63430008130033",
  "linkReferences": {},
  "deployedLinkReferences": {}
}